:100000000C9432050C945A050C945A050C945A051C
:100010000C945A050C945A050C945A050C945A05E4
:100020000C945A050C945A050C9414090C949B07D3
:100030000C945A050C945A050C945A050C945A05C4
:100040000C945A050C945A050C945A050C945A05B4
:100050000C945A050C945A050C945A050C94C10939
:100060000C945A050C945A050C945A050C945A0594
:100070000C945A050C945A050C945A050C945A0584
:100080000C945A050C945A050C945A050C945A0574
:100090000C945A050C945A050C945A050C945A0564
:1000A0000C945A050C945A050C945A05AB0DA40DEA
:1000B0001F0E1F0E1F0EC30D1F0E1F0E1F0E1F0E35
:1000C0001F0E1F0E1F0EC60DE10DF00D020E1F0EAE
:1000D0001F0E1F0E1F0E1F0E8D0DB50D9C169E16AA
:1000E000A016A216BA16BA16A416A616A816AA160E
:1000F000BA16B216B016BA16BD16BA16BA16BA168F
:10010000BA16BA16BA16BA16BA16BA16BA16BA166F
:10011000BA16BA16AE16BA16BA16BA16B816B8166F
:10012000B816B416B616BA16AC16C916CC16CF1633
:10013000D216D516D816DB16DE164F1B521B411BE6
:10014000451B4B1B731B731B731B561B5A1B5E1BE0
:10015000641B681B731B6E1B12010002EF0201403F
:100160004123368000010102030112010002000058
:100170000040412336800001010203014172647591
:10018000696E6F204C4C430055534220494F20422A
:100190006F6172640004030904080B00020202018B
:1001A00000090400000102020000052400100105FE
:1001B000240101010424020605240600010705812B
:1001C0000310004009040100020A000000070502B4
:1001D0000240000007058302400000436F6F6E6518
:1001E00063742100322E20507265737320416E7942
:1001F000206B65792E00312E20436F6E6E6563741F
:100200002053657269616C205465726D2E004172D5
:100210006475626F792045646974696F6E00544F2C
:10022000594F5348494B492054696E7920426173B4
:100230006963000F101112131415161718191A1BE1
:100240000D0E2802090D0F1011121415161718198A
:100250001A1B1C1D1E1F0A04F903F003D903C70350
:10026000BD03A70390037C036B03560344032F03D2
:1002700020030B03F602E002CC02BF02AF02A2028F
:100280009302840241626F7274206279205B45534D
:10029000435D00496E7465726E616C206572726FA9
:1002A000720053796E746178206572726F720049C2
:1002B0006C6C6567616C20636F6D6D616E640027A7
:1002C0003D272065787065637465640027282720C2
:1002D0006F72202729272065787065637465640034
:1002E000556E646566696E6564206C696E65206E26
:1002F000756D62657200494620776974686F757420
:1003000020636F6E646974696F6E004C455420778A
:100310006974686F7574207661726961626C6500DA
:10032000464F5220776974686F757420544F0046A9
:100330004F5220776974686F7574207661726961B5
:10034000626C65004E455854206D69736D6174632D
:100350006820464F52004E45585420776974686FA4
:10036000757420636F756E746572004E4558542025
:10037000776974686F757420464F5200464F52205B
:10038000746F6F206D616E79206E657374656400A3
:1003900052455455524E20737461636B20756E64E0
:1003A0006572666C6F7700474F53554220746F6FCC
:1003B000206D616E79206E6573746564004C69739D
:1003C000742066756C6C0049636F646520627566A5
:1003D0006665722066756C6C005375627363726932
:1003E0007074206F7574206F662072616E6765008F
:1003F0004F766572666C6F77004465766973696FD6
:100400006E206279207A65726F004F4B00D604D05F
:1004100004C904C504C204BD04B804B504B104ACE5
:1004200004A604A0049C049A0498049604940492DC
:100430000490048E048C048A048704850483048158
:10044000047E047C047A04760472046D04680464F7
:100450000460045C0457045053455400434C53005B
:100460004E45570052554E004C4953540053495A7B
:10047000450041425300524E440040003C003C3D88
:10048000003D003E0023003E3D00290028002500DD
:100490002F002A002B002D003B002C004C4554005F
:1004A0005052494E5400494E5055540053544F50E9
:1004B0000052454D004946004E455854005354459E
:1004C0005000544F00464F520052455455524E0072
:1004D000474F53554200474F544F00D5F08D14A15C
:1004E000C881CFD9F1AF200000000000003E5B4F73
:1004F0005B3E3E6B4F6B3E1C3E7C3E1C183C7E3C84
:10050000181C577D571C1C5E7F5E1C00183C180091
:10051000FFE7C3E7FF0018241800FFE7DBE7FF3021
:10052000483A060E2629792926407F050507407F8F
:1005300005253F5A3CE73C5A7F3E1C1C08081C1C02
:100540003E7F14227F22145F5F005F5F06097F01F8
:100550007F006689956A606060606094A2FFA294E3
:1005600008047E040810207E201008082A1C0808B1
:100570001C2A08081E101010100C1E0C1E0C3038FF
:100580003E3830060E3E0E06000000000000005F00
:1005900000000007000700147F147F14242A7F2A1C
:1005A00012231308646236495620500008070300DE
:1005B000001C2241000041221C002A1C7F1C2A082A
:1005C000083E08080080703000080808080800008D
:1005D00060600020100804023E5149453E00427F01
:1005E000400072494949462141494D331814127F50
:1005F0001027454545393C4A4949314121110907F0
:100600003649494936464949291E00001400000070
:100610004034000000081422411414141414004142
:1006200022140802015909063E415D594E7C1211FF
:10063000127C7F494949363E414141227F41414137
:100640003E7F494949417F090909013E41415173B2
:100650007F0808087F00417F41002040413F017F23
:10066000081422417F404040407F021C027F7F04EB
:1006700008107F3E4141413E7F090909063E415134
:10068000215E7F09192946264949493203017F0124
:10069000033F4040403F1F2040201F3F4038403F25
:1006A000631408146303047804036159494D43003B
:1006B0007F4141410204081020004141417F040272
:1006C0000102044040404040000307080020545409
:1006D00078407F28444438384444442838444428E7
:1006E0007F385454541800087E090218A4A49C783A
:1006F0007F0804047800447D40002040403D007F96
:100700001028440000417F40007C047804787C0875
:100710000404783844444438FC1824241818242449
:1007200018FC7C08040408485454542404043F442E
:10073000243C4040207C1C2040201C3C4030403C5D
:1007400044281028444C9090907C4464544C4400BD
:100750000836410000007700000041360800020121
:100760000204023C2623263C1EA1A161123A40400D
:10077000207A38545455592155557941215454788B
:1007800041215554784020545579400C1E52721224
:1007900039555555593954545459395554545800AC
:1007A00000457C410002457D420001457C40F02926
:1007B0002429F0F0282528F07C5455450020545475
:1007C0007C547C0A097F49324949493232484848B9
:1007D00032324A4848303A4141217A3A4240207800
:1007E000009DA0A07D39444444393D4040403D3CFB
:1007F00024FF2424487E4943662B2FFC2F2BFF091E
:1008000029F620C0887E0903205454794100004411
:100810007D413048484A32384040227A007A0A0AFC
:10082000727D0D19317D2629292F2826292929266F
:1008300030484D4020380808080808080808382FB4
:1008400010C8ACBA2F102834FA00007B000008143E
:100850002A142222142A14089500220095AA005571
:1008600000AAAA55AA55AA000000FF00101010FF08
:1008700000141414FF001010FF00FF1010F010F00F
:10088000141414FC001414F700FF0000FF00FF1400
:1008900014F404FC141417101F10101F101F14144C
:1008A000141F00101010F0000000001F1010101096
:1008B0001F10101010F010000000FF10101010108A
:1008C00010101010FF10000000FF140000FF00FFC8
:1008D00000001F10170000FC04F414141710171464
:1008E00014F404F40000FF00F71414141414141486
:1008F000F700F7141414171410101F101F141414F9
:10090000F4141010F010F000001F101F0000001F62
:1009100014000000FC140000F010F01010FF10FF95
:10092000141414FF141010101F00000000F010FF2A
:10093000FFFFFFFFF0F0F0F0F0FFFFFF000000000E
:1009400000FFFF0F0F0F0F0F38444438447C2A2A52
:100950003E147E02020606027E027E026355494173
:10096000633844443C04407E201E2006027E02027E
:1009700099A5E7A5991C2A492A1C4C7201724C3092
:100980004A4D4D303048784830BC625A463D3E4969
:100990004949007E0101017E2A2A2A2A2A44445F0D
:1009A000444440514A444040444A51400000FF0101
:1009B00003E080FF000008086B6B0836123624360F
:1009C000060F090F06000018180000001010003074
:1009D00040FF0101001F01011E00191D1712003CFC
:1009E0003C3C3C00000000000000000200090F0039
:1009F00000030401000C00000000000000000000E3
:100A000000000000000000040802011040804010B7
:100A10002040804080080204018040201002011024
:100A20008010204040200404040404030405020252
:100A30000202040302020202060606060606040477
:100A4000020202040400000000250028002B002EF2
:100A500000310000000000240027002A002D003093
:100A60000000C10B11241FBECFEFDAE0DEBFCDBF07
:100A700011E0A0E0B1E0E0EEFBE302C005900D92D2
:100A8000AE34B107D9F728E0AEE4B1E001C01D9261
:100A9000A131B207E1F71AE0C4E6DAE004C0229718
:100AA000FE010E94BC1DC236D107C9F70E945D0538
:100AB0000C94EE1D0C94000008950E94740A0E948C
:100AC0005C058EE491E00E9497090E94B409C0E0A1
:100AD000D0E00E94B8092097E1F30E940000F9CF0E
:100AE0004091520150915301209150013091510198
:100AF00042175307B4F49091E8009570E1F3909198
:100B0000E80092FD19C08093F1008091520190910C
:100B1000530101968F739927892B19F48EEF8093D7
:100B2000E8008091520190915301019690935301F6
:100B30008093520181E0089580E00895CF92DF9282
:100B4000EF92FF920F931F93CF93DF931F92CDB736
:100B5000DEB7082F162FF42E862F880F8E5F99830D
:100B60000E94700583E00E947005E02EC02E9981DE
:100B7000D92E8C2D8E19811798F4F601F7FE02C03C
:100B8000849101C080810E947005082F80E00E943E
:100B900070058023FFEFCF1ADF0A8111EACF01C071
:100BA00081E00F90DF91CF911F910F91FF90EF9017
:100BB000DF90CF9008958091D70081608093D70017
:100BC00080EA8093D80089B5806189BD89B582604B
:100BD00089BD09B400FEFDCF61E070E080E090E0E7
:100BE0000E943A0A8091D8008F7C80618093D8005F
:100BF0008091E000807F8093E0000895CF93DF93A1
:100C00001F92CDB7DEB71982CE0101960E94270B45
:100C10000E94650CBE016F5F7F4F0E94DE0B8981D1
:100C20000F90DF91CF9108952FB7FC012083F894A6
:100C300067706093E9000895CF93DF931F92CDB75B
:100C4000DEB7682FCE0101960E9414068091F20053
:100C500099819FBF0F90DF91CF910895FF920F93DD
:100C60001F93CF93DF9300D0CDB7DEB7F62E8A0166
:100C700090915601992311F057FF03C08FEF9FEF1A
:100C80002AC0682FCE0101967A830E9414068091B3
:100C9000F20090E0A8017A81801791070CF4AC0172
:100CA000EF2DF72FF40E84E6FE1631F080935701F6
:100CB0009091F1009193F8CF4115510521F0809169
:100CC000F200882321F089818FBFCA0104C08BE61E
:100CD0008093E800F8CF0F900F90DF91CF911F9194
:100CE0000F91FF900895CF93DF931F92CDB7DEB79A
:100CF00041E050E0BE016F5F7F4F0E942E060197DA
:100D000019F4898190E002C08FEF9FEF0F90DF917F
:100D1000CF910895CF93DF931F92CDB7DEB7682FA1
:100D2000CE0101960E9414069091E800892F8072EE
:100D300095FF04C09091F20080E4891B99819FBFC8
:100D40000F90DF91CF9108956F927F928F929F9233
:100D5000AF92BF92CF92DF92EF92FF920F931F93C9
:100D6000CF93DF931F92CDB7DEB7782E7B01C42ED1
:100D7000B52E80915601882369F0042F152F8AEF34
:100D8000D82E872D8072982E9AE3A92E872D8074F5
:100D9000882E11C08FEF9FEF57C0872D0E948A06C3
:100DA000682E81110CC0DA94A9F361E070E080E054
:100DB00090E00E943A0A0115110579F73BC0282FEF
:100DC00030E0021713070CF4602E672DCE01019658
:100DD0000E9414068091E80085FF29C0262D30E08E
:100DE000021B130B992039F06A948FEF6816B1F04B
:100DF0001092F100F9CFF701862D77FE07C08150E0
:100E000058F094919093F1003196F9CF815020F0F1
:100E100091919093F100FACFE20EF31E8091E800D9
:100E200085FF0FC00115110511F481100AC08981D9
:100E30008FBFC1CF5D9884E6809358018C2D9B2D88
:100E400003C0A092E800F3CF0F90DF91CF911F91E4
:100E50000F91FF90EF90DF90CF90BF90AF909F9059
:100E60008F907F906F9008951092E9001092530137
:100E70001092520190935101809350010895CF92A6
:100E8000DF92FF920F931F93CF93DF9300D0CDB7E4
:100E9000DEB7F82E8A016B0101151105B1F0F601DC
:100EA000F7FE02C0849101C0808149835A830E9469
:100EB000700501501109FFEFCF1ADF0A49815A81ED
:100EC0008111EACF8FEF9FEF01C0CA010F900F9001
:100ED000DF91CF911F910F91FF90DF90CF900895F8
:100EE000CF93DF939B01A4E6BBEF21153105F9F009
:100EF000A9012134310514F040E450E0E091E8000C
:100F0000E2FFFCCFFB01E21BF30BE80FF91FCE2F32
:100F1000C40FCE1729F0D091F100D0833196F9CFCC
:100F2000A0935701B093E800241B350BDECFCB0113
:100F3000DF91CF9108951F920F920FB60F92112457
:100F4000DF92EF92FF920F931F932F933F934F9354
:100F50005F936F937F938F939F93AF93BF93EF9321
:100F6000FF93CF93DF93CDB7DEB76C97DEBFCDBFD6
:100F70001092E9008091E80083FF2EC1FE01759672
:100F80008F01AE01435E5F4F9F012F5F3F4F809106
:100F9000F10080832417350711F0F901F5CF84E6BD
:100FA0008093570182EF8093E8005D8957FF05C069
:100FB0008091E80080FFFCCF03C08EEF8093E800B3
:100FC000852F807609F0EFC04E898F89D88C41112A
:100FD0000CC0503829F4809155018093F10002C073
:100FE0001092F1001092F100F0C0282F30E03D295E
:100FF000413051F45111E9C02130310509F0E5C00B
:10100000809155018D7F0BC0433061F45111DDC0DB
:101010002130310509F0D9C080915501826080935B
:101020005501D3C0453041F49091E80090FFFCCFCA
:1010300080688093E300C9C0463009F08BC0EB8C18
:10104000FC8C22E0D2122CC080E090E00E94340799
:101050000E94FE0599E08E010F5F1F4FF801292FB6
:1010600011922A95E9F79983DA8291E09E8390EABA
:1010700098879AEF99872091520130915301275F09
:101080003F4F3C832B838D83C7010E94340749E087
:1010900050E0B80180E00E943F070E94FE0595C025
:1010A000C7010E9434070E94650CB8010E94070C1A
:1010B000009719F00CF089C08CC081E0D8120EC0E6
:1010C0008B8D9C8D089719F481E080934F0180915E
:1010D0004F0181112FC06AE671E031C0E3E0DE12FA
:1010E00078C08F89882349F1823029F440E86CE088
:1010F00088E891E01CC0813029F440E86BE08CE77F
:1011000091E015C0833009F064C00E94650C8E0127
:101110000F5F1F4FB8010E94260CF80101900020BC
:10112000E9F73197E01BF10B40E06E2FC8010E94F8
:101130009E0549C068E571E002C065E971E061158E
:10114000710509F446C0FB01449150E080E80E941B
:101150003F073BC04730E9F1483021F481E08093FC
:10116000F10033C0493089F5537099F5E1E0F1E0C1
:1011700081E021E036E39081992361F08093E900DA
:101180002093EB0091919093EC003093ED008F5FF2
:10119000873089F78EE78093EA001092EA008F8902
:1011A0008093560112C08B8D9C8D0E943407898DCF
:1011B000811104C0C8010E94320B05C00E94650C59
:1011C000B8010E94450C882321F08EEF8093E8003F
:1011D00003C081E28093EB006C960FB6F894DEBFFB
:1011E0000FBECDBFDF91CF91FF91EF91BF91AF9136
:1011F0009F918F917F916F915F914F913F912F912F
:101200001F910F91FF90EF90DF900F900FBE0F9006
:101210001F9018958093E9008091F200882319F0BF
:101220008AE38093E80008951F920F920FB60F9201
:1012300011242F933F934F935F936F937F938F93DB
:101240009F93AF93BF93CF93EF93FF93C091E10030
:101250008091E100837F8093E1008093E100C3FFF0
:101260000FC01092E90081E08093EB001092EC0037
:1012700082E38093ED001092560188E08093F000A5
:10128000C2FF19C083E00E940A0980915801882397
:1012900039F080915801815080935801882389F159
:1012A00080915701882339F08091570181508093B4
:1012B0005701882341F1C4FF10C08091E2008E7E67
:1012C00081608093E2008091E1008F7E8093E10055
:1012D000809154018E7E806111C0C0FF16C0809144
:1012E000E2008E7E80618093E2008091E1008E7E3C
:1012F0008093E100809154018E7E8160809354013F
:1013000004C05D9ACDCF289AD6CFFF91EF91CF91AF
:10131000BF91AF919F918F917F916F915F914F910D
:101320003F912F910F900FBE0F901F901895109224
:10133000560110925501109254010E94DB058091D4
:10134000E1008E7E8093E1008DE08093E200559A6B
:10135000209AEEEFFFE7859194918B3F9C4D19F415
:1013600081E08093B20108950E94790C0C94A10C45
:101370000E949D0C882321F00E94BE160C949F0CA5
:1013800008951F920F920FB60F9211242F933F933F
:101390008F939F93AF93BF9380915A0190915B017C
:1013A000A0915C01B0915D013091590123E0230FC0
:1013B0002D3720F40196A11DB11D05C026E8230F8D
:1013C0000296A11DB11D2093590180935A0190935B
:1013D0005B01A0935C01B0935D0180915E019091EF
:1013E0005F01A0916001B09161010196A11DB11D45
:1013F00080935E0190935F01A0936001B0936101BF
:10140000BF91AF919F918F913F912F910F900FBE00
:101410000F901F9018952FB7F89460915A01709112
:101420005B0180915C0190915D012FBF08953FB7F2
:10143000F89480915E0190915F01A0916001B0915C
:10144000610126B5A89B05C02F3F19F00196A11D8B
:10145000B11D3FBF6627782F892F9A2F620F711D0C
:10146000811D911D42E0660F771F881F991F4A95C5
:10147000D1F708958F929F92AF92BF92CF92DF9251
:10148000EF92FF926B017C010E94170A4B015C01F5
:10149000C114D104E104F104F1F00E9400170E948C
:1014A000170A681979098A099B09683E7340810502
:1014B000910570F321E0C21AD108E108F10888EE25
:1014C000880E83E0981EA11CB11CC114D104E10454
:1014D000F10429F7DDCFFF90EF90DF90CF90BF9020
:1014E000AF909F908F900895789484B5826084BD6A
:1014F00084B5816084BD85B5826085BD85B5816018
:1015000085BDEEE6F0E0808181608083E1E8F0E077
:101510001082808182608083808181608083E0E8A6
:10152000F0E0808181608083E1E9F0E08081826089
:101530008083808181608083E0E9F0E08081816048
:101540008083E1ECF0E08081846080838081826030
:101550008083808181608083E3ECF0E08081816022
:101560008083E0ECF0E0808182608083E2ECF0E058
:10157000808181608083EAE7F0E0808184608083FD
:1015800080818260808380818160808380818068A7
:1015900080830895CF93DF931F92CDB7DEB7698321
:1015A000DC01ED91FC910280F381E02D41E050E0FF
:1015B000BE016F5F7F4F09950F90DF91CF91089526
:1015C000CF93DF93EC018C859D8597FF05C082E06A
:1015D0000E9473069D878C878C859D85DF91CF91B6
:1015E000089583E00C940A09FC018485958597FD94
:1015F00006C082E00E941C0690E00196089582E0F9
:101600000E941C0690E00895FC018485958597FD55
:1016100005C02FEF3FEF35872487089582E00C94B3
:101620007306CF93DF93EC0180911201882331F090
:1016300083E00E94A4061816190634F081E090E0B9
:101640009B838A8380E090E0DF91CF910895FC0135
:1016500020812E5F208342E450E069E971E080E858
:101660000C943F07FC0121818081813A59F4213299
:1016700009F04BC047E050E06BE071E080E00E9471
:101680003F075EC0813209F040C0233289F4838174
:1016900090E0982F88273281832BA0E0B0E08093E0
:1016A000070190930801A0930901B0930A010FC0AC
:1016B000203239F467E070E08BE091E00E9470071F
:1016C00009C0223221F482818093120103C02D7F50
:1016D0002032B1F58091B201811103C0E0E0F8E061
:1016E00002C0EEEFFAE080910B0190910C01A09105
:1016F0000D01B0910E01803B9440A105B10511F59B
:101700008091120180FF03C01DC080E00895EE3F6C
:101710002AE0F20731F0808191819093FF0A809353
:10172000FE0A87E797E7918380832BE088E190E0CA
:101730000FB6F894A895809360000FBE20936000C8
:1017400081E0089588E10FB6F894809360001092CC
:1017500060000FBEA895EE3F8AE0F80739F080914F
:10176000FE0A9091FF0A91838083EACF1092FF0ACC
:101770001092FE0AE5CF2FEF3FEFFC01358724875B
:101780000895109265011092640188EE93E0A0E044
:10179000B0E08093660190936701A0936801B093D5
:1017A000690187E191E090936301809362018FEF7B
:1017B0009FEF90936F0180936E010895EF92FF92D7
:1017C0000F931F93CF93DF937B01FC01C281D381E1
:1017D00000E010E0209781F0E881F9810280F38138
:1017E000E02DB701CE01099597FD08C0080F191F1C
:1017F0000884D985C02DEECFC80102C08FEF9FEFBE
:10180000DF91CF911F910F91FF90EF9008950F936B
:101810001F93CF93DF938B01FC01C281D38120976B
:1018200071F0E881F9810480F581E02DB801CE01E5
:101830000995009731F40884D985C02DF0CF80E058
:1018400090E0DF91CF911F910F9108950F931F9317
:10185000CF93DF938B01FC01C281D381209771F07C
:10186000E881F9810680F781E02DB801CE01099564
:10187000080F111D0884D985C02DF0CFF801108202
:10188000DF91CF911F910F9108950F931F93CF93E5
:10189000DF938B01FC01C281D381209771F0E88135
:1018A000F9810190F081E02DB801CE0109958111F7
:1018B00006C00884D985C02DF0CF80E001C081E04A
:1018C000DF91CF911F910F9108958091B701811100
:1018D0000DC082E08093B30184E08093B401109244
:1018E000B6011092B50181E08093B70183EB91E0DE
:1018F0000895E4E6F0E080818064808380818160E7
:101900008083808180688083808182608083E5E637
:10191000F0E08081816080830E9433190E94B718B3
:101920000C942F1A83B7817F83BF83B7816083BFF5
:10193000889583B78E7F83BF08950C94C5180C9447
:10194000B51944E252E060E08FEB91E00E9401178C
:1019500040E855E260E070E082E691E00C94BB0B59
:10196000E091D503E23024F487E08093E203089508
:10197000AFEFAE0FB0E0AA0FBB1FAA52BC4F8D91C4
:101980009C919093590380935803E250E093D503C0
:10199000F0E0EE0FFF1FEA52FC4F8081918190939F
:1019A0005703809356030895CF93C091B603C53073
:1019B00014F489E038C08C2F992787FD9095FC019D
:1019C000EE0FFF1FEB54FC4F0190F081E02DDC0186
:1019D000AA0FBB1FAD54BC4F4D915C91DC01AA0F07
:1019E000BB1FAF54BC4F6D917C91A0915603B09139
:1019F00057039D012F5F3F4F3093570320935603AA
:101A00002C91263211F08AE00EC09D012E5F3F4FCF
:101A1000309357032093560311962C9130E0E21730
:101A2000F30721F08BE08093E2032FC0EE0FFF1F3E
:101A3000E65AFC4F20813181240F351F31832083EA
:101A400057FF04C02617370754F405C0452B39F05B
:101A50006217730724F4C550C093B60316C0FC0187
:101A6000EE0FFF1FE155FC4F20813181309357036A
:101A700020935603FC01EE0FFF1FE355FC4F8081BE
:101A800091819093590380935803CF910895E091E9
:101A90005603F09157038081883231F03196F093EC
:101AA0005703E0935603F3CF0895E0915803F09164
:101AB00059038081882339F0E80FF11DF093590311
:101AC000E0935803F2CF0895009779F0BC0197FF97
:101AD00003C0719561957109882777FD8095982FCE
:101AE0000E94131BCB010196089580E090E00895B9
:101AF000CF93DF93C1E0D0E0A0915603B09157039C
:101B00004C9150E04F5051094831510508F097C0B1
:101B10004A5A5F4FFA010C94BA1DCD010196909379
:101B200057038093560312968C91129790E0982F4A
:101B3000882711962C911197822BFD013396F093F3
:101B40005703E093560380C0FD013196F09357038D
:101B5000E0935603D1CFFD013196F0935703E09304
:101B60005603D195C195D109C7CFCD010296909367
:101B70005703809356031196EC91F0E0EE0FFF1F90
:101B8000E65AFC4F1BC00E94160F5EC0FD01319645
:101B9000F0935703E09356030E94160F2091E2033F
:101BA000211152C08431910524F023E02093E203F7
:101BB0004BC0FC01EE0FFF1FE257FC4F808191816B
:101BC00043C0FD013196F0935703E09356030E9402
:101BD000160F2091E203211137C00E94640D34C01A
:101BE000FD013196F0935703E09356030E94160FC0
:101BF0002091E203211128C097FF26C0919581957D
:101C0000910922C0CD01019690935703809356030A
:101C100011968C911197843129F412968C91129718
:101C2000853111F081E10CC0FD013396F09357032B
:101C3000E0935603809128029091290205C084E127
:101C40008093E20380E090E09C01C29FC001C39FAB
:101C5000900DD29F900D1124DF91CF910895CF93D5
:101C6000DF930E94780DEC018091E20381113BC06B
:101C7000E0915603F09157038081823109F183315D
:101C800091F0813199F53196F0935703E093560323
:101C90000E94780D9E01289FE001299FD00D389F5A
:101CA000D00D1124E5CF3196F0935703E0935603FE
:101CB0000E94780DBC01CE010E94841DEC01D8CF9A
:101CC0003196F0935703E09356030E94780DBC01C0
:101CD000009721F481E08093E20305C0CE010E94C9
:101CE000841DEB01C5CF8FEF9FEF01C0CE01DF91C7
:101CF000CF910895CF93DF930E942F0EEC01809136
:101D0000E20381111DC0E0915603F09157038081D9
:101D10008F3061F08031B9F43196F0935703E0933E
:101D200056030E942F0EC80FD91FEDCF3196F093A6
:101D30005703E09356030E942F0EC81BD90BE3CF25
:101D40008FEF9FEF01C0CE01DF91CF910895CF9328
:101D5000DF930E947A0EEC018091E20381115FC053
:101D6000E0915603F091570380818831E9F130F416
:101D7000863109F445C0873199F054C08A3141F168
:101D800018F08B31C9F04EC03196F0935703E093B1
:101D900056030E947A0E21E0C817D907E1F53CC02E
:101DA0003196F0935703E09356030E947A0E21E098
:101DB000C817D90789F52FC03196F0935703E093E0
:101DC00056030E947A0E21E0C817D9072CF123C0D0
:101DD0003196F0935703E09356030E947A0E21E068
:101DE0008C179D07CCF417C03196F0935703E093FE
:101DF00056030E947A0E21E08C179D076CF00BC0F1
:101E00003196F0935703E09356030E947A0E21E037
:101E1000C817D9070CF420E0C22FD0E0A1CF8FEF74
:101E20009FEF01C0CE01DF91CF910895E09156035D
:101E3000F0915703CF010196909357038093560377
:101E400080818431A1F40E94A70E2091E203211128
:101E500011C0E0915603F09157039F012F5F3F4F50
:101E600030935703209356032081253129F081E1D7
:101E70008093E20380E090E008950E94A70E2091F5
:101E8000E203222321F08FE08093E2030895892B5F
:101E900011F40C94470D0895CF93A0915603B0917F
:101EA0005703CD0101969093570380935603CC912D
:101EB0000196909357038093560311968C91893124
:101EC00021F082E18093E2030EC00E94A70E2091D0
:101ED000E203211108C0EC2FF0E0EE0FFF1FE65ADD
:101EE000FC4F91838083CF9108951F93CF93DF930D
:101EF000E0915603F0915703CF0101969093570359
:101F0000809356038081863211F08CE043C01181AA
:101F10000E944C0F8091E203811173C0E09156033F
:101F2000F0915703CF010196909357038093560386
:101F30008081843011F08DE02DC00E94A70EEC014D
:101F4000E0915603F091570380818530A9F43196D2
:101F5000F0935703E09356030E94A70E97FF09C022
:101F600021E030E8281B390BC217D30774F482E054
:101F700011C0009751F002C081E090E02FEF3FE7E1
:101F8000281B390B2C173D0794F3E091B603EB3077
:101F900024F088E08093E20334C0AE2FAA0FBB0B7D
:101FA000A954BC4F20915803309159032D933C9371
:101FB000A1E0AE0FAA0FBB0BA954BC4F2091560352
:101FC000309157032D933C93A2E0AE0FAA0FBB0BA9
:101FD000A954BC4FCD93DC93A3E0AE0FAA0FBB0B6B
:101FE000A954BC4F8D939C9385E08E0F8093B603CC
:101FF000EC5FEE0FFF0BE954FC4F812F90E09183D3
:102000008083DF91CF911F910895CF93DF930E943A
:10201000160FEC018091E203811123C0C431D10578
:1020200014F083E00EC0E0915603F0915703CF0106
:10203000019690935703809356038081893121F054
:1020400082E18093E2030DC00E94A70E2091E2037B
:10205000211107C0FE01EE0FFF1FE257FC4F9183D5
:102060008083DF91CF910895E0915603F09157035B
:10207000CF01019690935703809356038081863257
:1020800011F40C944C0F8C3111F40C9405108EE06B
:102090008093E20308951F93CF93DF931F92CDB7F0
:1020A000DEB70E94A70E182F8091E203811137C07E
:1020B000E0915603F09157039F012F5F3F4F3093FC
:1020C00057032093560380818D30A9F40E94A70EF8
:1020D000682F8091E203811122C0E0915603F091B4
:1020E00057039F012F5F3F4F3093570320935603B1
:1020F00080818D3021F084E18093E20310C06983F8
:102100000E94A70E9091E2036981911108C0482FA7
:10211000812F0F90DF91CF911F910C94011A0F9096
:10212000DF91CF911F910895E3E4F2E09491891734
:1021300039F0319692E0E635F907C1F780E008956D
:1021400081E00895E3E3F2E09491891739F0319644
:1021500092E0E334F907C1F780E0089581E0089543
:10216000803239F097EF980F81E0953018F080E0D9
:10217000089581E008959FE9980F9A3138F09FEB18
:10218000980F81E09A3118F080E0089581E0089579
:10219000823231F091E0873209F090E0892F089582
:1021A00081E00895209156033091570382E02A324E
:1021B000380720F081E02655334008F080E008958C
:1021C0002091F4013091F5012133310524F084E0B0
:1021D0008093E2030895A9014F5F5F4F5093F5018B
:1021E0004093F401F901E154FE4F87AB0895EF925B
:1021F000FF920F931F93CF93DF938C017B01EC0130
:10220000CE01801B910B8E159F0524F489910E94AD
:10221000E010F6CFDF91CF911F910F91FF90EF90DB
:1022200008950F931F93CF93DF93FC0120E030E0DC
:102230009AE08F010F5F1F4F929FE001939FD00D97
:1022400011248081C80FD11DE097C217D30724F451
:1022500082E08093E20310C0818180538A3018F4B9
:10226000F8019E01E6CF85E20E94E0108C2F0E94CB
:10227000E0108D2F0E94E010C801DF91CF911F91D7
:102280000F910895DF92EF92FF920F931F93CF93D8
:10229000DF93EC012196DC2E0C2F1D2FF02EFD1864
:1022A000F801E1908F018E2D0E94C810811104C0A9
:1022B00080EE8E0D8F3590F387E20E94E0108F2D17
:1022C0000E94E0100F2D10E0B801CE010E94F7101F
:1022D000C00FD11F88810E94C81081112196CE01A4
:1022E000DF91CF911F910F91FF90EF90DF900895B4
:1022F000EF92FF921F93CF93DF931F92CDB7DEB77C
:10230000182F86E299830E94E010E12E9981F92E20
:10231000F70181917F0181540E94E010C7010F9065
:10232000DF91CF911F91FF90EF900895FC01808184
:10233000882339F0828190E0982F88272181822B91
:1023400008958FEF9FE70895FF920F931F93CF9308
:10235000DF938C01CAE2D2E0F880FF2049F0CE0181
:102360000E949611801791071CF4CF0DD11DF4CF58
:10237000CE01DF91CF911F910F91FF900895EF92C1
:10238000FF920F931F93CF93DF9300912802109138
:1023900029028091F4019091F501800F911F8C32F8
:1023A000914024F085E08093E2036EC086EF91E0D7
:1023B0000E9496117C010E94A411EC010E949611CA
:1023C0008E159F0511F58881081B110910932902AC
:1023D000009328028881DE01A80FB11D8E012C9187
:1023E000222389F0A80130E0CD01820F931F8A17C4
:1023F0009B0729F06D91FA016193AF01F8CF020FAD
:10240000131FDC01ECCFF80110822091F401309110
:10241000F50124303105A9F1FE018081882319F0EE
:10242000E80FF11DFACFCF018C1B9D0BDF01119638
:10243000E20FF31F31968F3F2FEF920721F02E917D
:1024400022930197F8CF8091F4019091F501809348
:10245000F601E6EFF1E08C0F9D1FC817D90719F0C0
:1024600021912993FACF80912802909129022091FD
:10247000F4013091F501820F931F9093290280930C
:10248000280281E08093BF01DF91CF911F910F91CE
:10249000FF90EF9008950F931F93CF93DF930E94C7
:1024A000A70E8C018091E203811116C0C8010E9421
:1024B000A411EC010E9496110817190721F080E180
:1024C0008093E20309C0D0935903C0935803239625
:1024D000D0935703C0935603DF91CF911F910F9173
:1024E00008950F931F93CF93DF930E94A70E8C0143
:1024F0008091E203811136C0C8010E94A411EC0151
:102500000E9496110817190711F080E105C0E091AB
:10251000D503E53024F086E08093E20323C0AE2F9C
:10252000AA0FBB0BAA52BC4F809156039091570340
:102530008D939C9382E08E0F8093D503EF5FEE0F17
:10254000FF0BEA52FC4F80915803909159039183FD
:102550008083D0935903C09358032396D093570395
:10256000C0935603DF91CF911F910F910895CF93A0
:102570002DE034E060E0F90145915491DC01481B05
:10258000590BFA01EA0FFB1F7491772321F0C491D4
:102590007D91C717B1F3E491EE2329F06F5F2E5FB1
:1025A0003F4F653241F7862FCF9108950E94B712B1
:1025B00091E0853208F090E0892F0895282F30E0CF
:1025C000220F331F235F3B4FF90185919491F9014D
:1025D000259134910196FC013197E491E111FACFF4
:1025E000821B930B815008950F931F93CF93DF931A
:1025F000EC018E012196F80180810E94B0108111BA
:10260000F8CFC801DF91CF911F910F910895EF92FC
:10261000FF920F931F93CF93DF93EC010E94B712A9
:10262000182F0E94E010812F0E94DE12C80FD11DCA
:102630001830A9F4CE010E94F4128C0180E0E82E3B
:10264000F12CE801CE0DDF1D9881992311F08F5FE9
:10265000F6CF0E94E010B701C8010E94F710CE012A
:10266000DF91CF911F910F91FF90EF9008951F93ED
:10267000CF93DF9382EC91E02091E20321113AC0E5
:102680000E94F412EC01888181110DC088E20E9441
:10269000E0108091F601853211F484E001C085E0FC
:1026A0008093BF0127C0CE010E94D612882321F05B
:1026B000CE010E940713E0CF188180ED810F8A3090
:1026C00020F4CE010E941111D7CF812F0E94C81093
:1026D000882321F0CE010E944211CECF812F0E948B
:1026E000BB10882321F0CE010E947811C5CF84E170
:1026F0008093E203DF91CF911F910895682F82E6C6
:1027000091E00C94CA0A8EE30E947E131092C101DC
:102710001092C0011092F5011092F40182E08093B2
:10272000BF010895CF93DF93EC018991882319F0BD
:102730000E947E13FACFDF91CF910895CF93DF935C
:10274000EC01FE018491882321F00E947E132196E2
:10275000F8CFDF91CF910895CF92DF92EF92FF9261
:102760000F931F93CF93DF93CDB7DEB727970FB6A5
:10277000F894DEBF0FBECDBF8B0197FF06C09195C9
:1027800081959109FF24F39401C0F12C1F8246E04A
:102790002AE030E0CC24CA94C40EE1E0F0E0EC0F73
:1027A000FD1FEC0DF11DB9010E94841D805D808329
:1027B000CB01009711F04C2DEDCFFF2059F02EEFFB
:1027C000C22EC40EE1E0F0E0EC0FFD1FEC0DF11D98
:1027D0008DE28083D12C96E0E92EF12CEC18FD08D7
:1027E000E016F10634F480E20E947E1301501109D4
:1027F000F7CF81E090E08C0F9D1F8C0D9D1D0E94F6
:10280000921327960FB6F894DEBF0FBECDBFDF91AF
:10281000CF911F910F91FF90EF90DF90CF9008958F
:102820000F931F93CF93DF93EC01E881E83209F413
:1028300066C0E53228F5F0E0EE0FFF1FE35FFB4FC7
:10284000859194910E949E1388810E949410811119
:1028500003C080E20E947E138881883069F48981F8
:1028600022968E01080F111D0C171D0709F447C091
:1028700089910E947E13F8CF8E010F5F1F4F3DC0DC
:10288000E53279F48A8190E0982F8827298160E0E9
:1028900070E0822B0E94AC138E010D5F1F4F8B8165
:1028A0000AC0E63269F48E010E5F1F4F89818F5B8B
:1028B0000E947E138A810E94A21081111EC018C03E
:1028C000E732D1F482E20E947E13898122968E0142
:1028D000080F111D0C171D0721F089910E947E130E
:1028E000F9CF82E20E947E13F8018081863229F4BA
:1028F00080E20E947E1301C08E01E80196CFDF9135
:10290000CF911F910F9108958DE00E947E138AE070
:102910000C947E130E948414E6E5F2E08591949174
:102920000E949E130E94841481E08093BF01089549
:10293000CF93DF938091F601813209F440C018F4FF
:10294000803291F055C0823221F0883209F441C0C2
:102950004FC08091F701883221F084E18093E20337
:1029600054C00E94A10C35C08091F701883259F003
:102970009091FA01983289F7853229F487EF91E036
:102980000E94961102C080E090E00E94A411EC0128
:1029900088818823F1F0CE010E94961160E070E0FA
:1029A0000E94AC1380E20E947E13CE0103960E9427
:1029B00010140E9484148881C80FD11DE9CF809122
:1029C000F701883251F68091280290912902892BD3
:1029D00011F487E018C01092B6031092D5038AE272
:1029E00092E090935903809358038DE292E006C0E1
:1029F00086EF91E090935903809358039093570387
:102A00008093560386E08093BF01DF91CF910895B4
:102A10000E9484140E94D2108823C9F083E291E0BE
:102A20000E94921380915803909159030E9496112D
:102A300060E070E00E94AC1380E20E947E138091FF
:102A400058039091590303960E94101408C089E21C
:102A500091E00E94921382EC91E00E9492130E94F6
:102A60008414E091E203F0E0EE0FFF1FEA5AFD4FFD
:102A7000859194910E949E130E9484141092E20307
:102A800081E08093BF010895EF92FF920F931F930F
:102A9000CF93DF9300E010E0E0915603F0915703ED
:102AA00080818E3009F457C0883209F454C08731D0
:102AB000F1F0873249F5CF01029690935703809346
:102AC0005603E180C0E0D0E0F12CEC16FD0629F1C0
:102AD000E0915603F0915703CF010196909357036D
:102AE0008093560380810E947E132196EECF31960B
:102AF000F0935703E09356030E94A70E8C01809138
:102B0000E203882351F02FC00E94A70E2091E20318
:102B1000211129C0B8010E94AC13E0915603F09135
:102B2000570380818D3069F4CF010196909357034C
:102B30008093560381818E30B1F0883209F0ACCF9A
:102B400012C08E3009F4A8CF883209F4A5CF84E1F1
:102B50008093E20308C0DF91CF911F910F91FF9006
:102B6000EF900C948414DF91CF911F910F91FF90FF
:102B7000EF90089582E691E00E94040B893021F0E5
:102B80008F3719F488E001C080E29FE9980F9A31ED
:102B900008F48052089582E691E00E94F40A21E050
:102BA000181619060CF020E0822F08950E94241AAE
:102BB0004EE152E060E080E00E94E8194EE052E011
:102BC00061E080E00E94E81946EF51E063E080E0B8
:102BD0000E94E81944EE51E064E080E00E94E819A8
:102BE0000E94CB15882359F00E94BA154BED51E095
:102BF00066E080E00E94E81987E08093BF010895B5
:102C0000CF930E94CB15882309F453C00E94BA15B4
:102C1000C82F8D30A9F40E9484148091C001909136
:102C2000C1019C012F5F3F4F3093C1012093C00130
:102C3000FC01E154FE4F138283E08093BF0139C051
:102C400080EE8C0F8F35D0F42091C0013091C101FE
:102C50002033310574F58C2F0E947E132091C00122
:102C60003091C101A9014F5F5F4F5093C101409363
:102C7000C001F901E154FE4FC3831BC0C830C9F441
:102C80008091C0019091C1011816190694F488E052
:102C90000E947E1380E20E947E1388E00E947E13D1
:102CA0008091C0019091C10101979093C1018093DF
:102CB000C001CF9108950E94CB15882331F00E9466
:102CC000BA158B3111F486E156C0E0915603F091AC
:102CD000570380818832E1F40E94D2108823A1F04A
:102CE000E0915803F09159038081E80FF11DF093B2
:102CF0005903E0935803CF010396909357038093B1
:102D000056038081811104C087E08093BF0108953C
:102D1000E0915603F0915703CF010196909357032A
:102D200080935603808190E08732910518F5FC016D
:102D3000E259FF4F0C94BA1D0C944B120C94711273
:102D40000C94B00C0C94750F0C94D40C0C943D0F97
:102D50000C94470D0C94550D0C944C0F0C940510CD
:102D60000C9434100C9444150C94241A0C944B10AD
:102D700083E101C084E18093E20308958091BF0163
:102D800090E088309105E8F4FC01EB56FF4F0C947D
:102D9000BA1D0E94D6152EC00E9483132BC00E941C
:102DA000001628C00E94371325C00E94BF1122C000
:102DB0000E9498141FC00E945B161CC00E948A14B7
:102DC00019C01F9288EE8F9383E391E09F938F93B6
:102DD0008BE391E09F938F9384E491E09F938F9393
:102DE0000E9491188DB79EB708960FB6F8949EBFB3
:102DF0000FBE8DBF8091E20381110C9408150895D8
:102E000008954115510549F01416150634F4FC01D6
:102E10006083415051090196F7CF0895CF93DF9316
:102E20009B01C52F0E94841DFB01D82F1E161F0673
:102E30003CF45C2FB901CF010E940E17482FC92F17
:102E4000D05DE42FFC2FD193CF01DF91CF91089576
:102E5000AF92BF92CF92DF92EF92FF920F931F93A8
:102E6000CF93DF935B01FA01102FFE2C0E94841D8B
:102E7000EB016C011C161D061CF02230310554F0CC
:102E800021503109E12C012FAF01B501CE010E9483
:102E90002817FC01CF010196C114D10421F4CD2BD8
:102EA00011F4FF2021F020E32C0D208301C01083BA
:102EB000DF91CF911F910F91FF90EF90DF90CF9016
:102EC000BF90AF9008958F929F92AF92BF92CF9292
:102ED000EF920F931F93CF93DF934B015C01C02FB1
:102EE0001E2DDC2D80E188169104A104B10418F494
:102EF000223031058CF021503109CD2EE12C0C2FE0
:102F0000C501B401E4E09695879577956795EA95B4
:102F1000D1F70E946317AC0194012F703327CA01C7
:102F200001962115310531F489288A288B2811F45E
:102F3000112351F02A30310510F0DA5001C0D0E3EE
:102F4000D20FFA01D08302C0FA01C083DF91CF9182
:102F50001F910F91EF90CF90BF90AF909F908F9067
:102F60000895CF92DF92EF92FF92CF936B017C0195
:102F7000C22F80E1C816D104E104F10460F0C7015A
:102F8000B601F4E09695879577956795FA95D1F710
:102F90000E94B117AC01C6018F7099278A30910544
:102FA00018F026EF2C0F01C020E3280FFA0121931F
:102FB000CF01CF91FF90EF90DF90CF900895FB016C
:102FC000DC012D91CD01222311F02193F9CFCF0106
:102FD00008958F929F92AF92BF92CF92EF92FF92FD
:102FE0000F931F93CF93DF93FC01EB01DA0110E203
:102FF000812C912C0DE2F02E8881882309F484C065
:10300000853239F05E012FEFA21AB20A8083ED01FA
:1030100079C089815E01803321F032E0A30EB11CBA
:1030200005C083E0A80EB11C8A8110E390ED980FD3
:103030009A3078F4882E992487FC909490E3891A2A
:103040009108E501888195012F5F3F4F590121E0EB
:1030500001C020E08C3681F134F4833609F44EC08F
:10306000843669F051C08337F1F1883709F04CC0DC
:10307000ED0122966D917C9180E090E023C0ED01FE
:1030800022968D919C9197FF05C09195819591090C
:10309000F0823196222351F0EE24E394012F940123
:1030A000AF016AE070E00E94281724C0AF016AE017
:1030B00070E00E940E171EC0ED0124966D917D9167
:1030C0008D919C91222351F0A1E6CA2EEE24E39427
:1030D000012F9401AF010E9463170CC021E6AF01DC
:1030E0000E94B11707C0ED012296BF018D919C91FE
:1030F0000E94DF17FC01DE01E5017ECFED01229683
:103100008C9180833196F7CF1082DF91CF911F9100
:103110000F91FF90EF90CF90BF90AF909F908F90C6
:103120000895CF93DF93CDB7DEB7A8970FB6F89485
:10313000DEBF0FBECDBFFE01BD9661917191AF01A3
:10314000CE0101960E94E9178E010F5F1F4FF02EEE
:10315000F094F80141918F01442331F060E08F2D0C
:10316000800F0E94C319F5CF0E94B519FFCF41E12E
:1031700050E060E083EE93E00E9401178CE38093BF
:10318000E30380E18093EF0308950F931F930E9460
:103190000B0A2091F003222391F02091EA03362FAD
:1031A000321B3093EE032091E4033091E5032F5F4F
:1031B0003F4F3093E5032093E4031092F003009116
:1031C000E6031091E7032091E8033091E9036017CB
:1031D00071078207930730F4061B0230C8F10E9482
:1031E000920C36C04091EF030091EA031091EB037B
:1031F0002091EC033091ED03040F111D211D311DB1
:10320000061717072807390748F00093E6031093BD
:10321000E7032093E8033093E90308C06093E603D3
:103220007093E7038093E8039093E9036093EA03C4
:103230007093EB038093EC039093ED0381E0809314
:10324000F0038091F3038F5F8093F30381E001C06B
:1032500080E01F910F9108958EBD00000DB407FE10
:10326000FDCF8EB50895CF92DF92EF92FF920F932C
:103270001F93CF93DF9340E054E060E084EF93E04E
:103280000E9401170E94E31B8CB58C7F8CBD8DB50D
:1032900081608DBD61E084E00E94741B61E08CE080
:1032A0000E94741B61E086E00E94741B61E086E06E
:1032B0000E94AD1B61E070E080E090E00E943A0A5D
:1032C00060E086E00E94AD1B6AE070E080E090E084
:1032D0000E943A0A61E086E00E94AD1BE2E3FAE058
:1032E000E491F0E0EE0FFF1FEB5BF54FC591D49139
:1032F000EAE2FAE0E491F0E0EE0FFF1FEB5BF54F3E
:1033000005911491E3E1FAE0D490EBE0FAE0C49087
:1033100088818D298883F80180819C2D909589234F
:1033200080838881D0948D2188832BEDE22E24E048
:10333000F22EF70184910E942C19FFEFEF1AFF0A79
:1033400088EEE81684E0F806A1F7F80180818C2960
:10335000808388818D218883DF91CF911F910F9188
:10336000FF90EF90DF90CF900895CF93DF93C4EF5D
:10337000D3E089910E942C1987E0C43FD807C9F790
:10338000DF91CF910895893110F5683000F590E80C
:10339000699FB001112495E04902A001112420E0A9
:1033A00030E048515B4F95E0899F600D711D1124FD
:1033B0006C507C4FFA01E20FF31FE491DB01A20F86
:1033C000B31FEC932F5F3F4F2530310599F70895D8
:1033D0000F931F93CF93DF93162FFA01082F041B2F
:1033E000802F8E0F4491EF012196442329F0612F05
:1033F0000E94C319FE01F4CFDF91CF911F910F916D
:10340000089587FD20C06034F0F4962F9695969528
:103410009695E82FF0E0677080E8989FE00DF11D29
:103420001124EC50FC4F81E090E0062E01C0880F83
:103430000A94EAF7442319F09081982B03C08095F1
:10344000908198239083089584EF93E0FC010024F9
:1034500011921192119211920394D1F708954BE9B0
:1034600052E16CE776EF84EF97E00C94F01C2F921A
:103470003F924F925F926F927F928F929F92AF9204
:10348000BF92CF92DF92EF92FF920F931F93CF9351
:10349000DF93C0E0D8E0488059806A807B80A8EF45
:1034A000B7E0CD90DD90ED90FC908CEF282E87E07A
:1034B000382EF10180809180A280B380D501C401B3
:1034C0008C259D25AE25BF2544EF57E0FA010081EC
:1034D0001181228133813F7780279127A227B3274B
:1034E0008C019D01000F111F221F331F0827192770
:1034F0002A273B27D301C201B695A79597958795B3
:1035000084259525A625B72580279127A227B327AF
:10351000C082D182E282F38288839983AA83BB83AB
:103520002C013D01F1E04F2255246624772470944C
:10353000609450944094411C511C611C711C40913A
:10354000040850910508609106087091070844210D
:10355000552166217721482559256A257B25E8EFE5
:10356000F7E04083518362837383AC01BD01EAE0DD
:10357000440F551F661F771FEA95D1F74027512743
:1035800062277327009108081091090820910A0802
:1035900030910B080421152126213721402751277E
:1035A00062277327F1014083518362837383052F60
:1035B000162F272F33270C0D1D1D2E1D3F1DBC015F
:1035C000CD016027712782279327017011272227B9
:1035D0003327CC24DD247601C01AD10AE20AF30A8B
:1035E00000910C0810910D0820910E0830910F08E1
:1035F000C022D122E222F3226C257D258E259F2533
:10360000DF91CF911F910F91FF90EF90DF90CF90BE
:10361000BF90AF909F908F907F906F905F904F90F2
:103620003F902F900895CF93DF9300D000D0CDB777
:10363000DEB79B01AC0169833A834B835C830E94B4
:10364000371A29813A814B815C810E94981D97FF2E
:1036500007C090958095709561957F4F8F4F9F4FD4
:103660000F900F900F900F90DF91CF91089590E001
:10367000FC013197EF30F105B0F5E356FF4F0C94A4
:10368000BA1D809180008F7703C0809180008F7D6C
:1036900080938000089580918000877FF9CF84B562
:1036A0008F7702C084B58F7D84BD0895809190008E
:1036B0008F7707C0809190008F7D03C0809190002C
:1036C000877F8093900008958091C0008F7703C01A
:1036D0008091C0008F7D8093C00008958091C200CA
:1036E000877F8093C2000895CF93DF9390E0FC0121
:1036F000E95FF54F2491FC01EA5DF54F8491882341
:1037000049F190E0880F991FFC01ED5AF54FA59102
:10371000B4918B5B954FFC01C591D4919FB761111A
:1037200008C0F8948C91209582238C938881822301
:103730000AC0623051F4F8948C91322F3095832373
:103740008C938881822B888304C0F8948C91822B7F
:103750008C939FBFDF91CF9108950F931F93CF93C9
:10376000DF931F92CDB7DEB7282F30E0F901E85183
:10377000F64F8491F901E95FF54F1491F901EA5D83
:10378000F54F04910023C9F0882321F069830E943A
:10379000371B6981E02FF0E0EE0FFF1FEB5BF54F69
:1037A000A591B4919FB7F8948C91611103C01095C5
:1037B000812301C0812B8C939FBF0F90DF91CF910C
:1037C0001F910F910895CF93CFB7F894809110086F
:1037D000811127C0E7E3FAE08491E8E1FAE09491EF
:1037E000E82FF0E0EE0FFF1FED5AF54FA591B491D1
:1037F0008C91892321F461E081E10E94AD1B61E09D
:1038000081E10E94741B8CB580618CBD8CB5806495
:103810008CBD61E08FE00E94741B61E080E10E943A
:10382000741B809110088F5F80931008CFBFCF91D9
:1038300008954F925F926F927F928F929F92AF9274
:10384000BF92CF92DF92EF92FF920F931F93FC01F2
:1038500084849584A684B784048115812681378168
:103860004084518462847384B301A20140275127AC
:1038700062277327C080D180E280F380E894F7F854
:103880004C255D256E257F256A017B01CC0CDD1C56
:10389000EE1CFF1CC426D526E626F726B501A4019A
:1038A0007695679557954795482559256A257B252F
:1038B0004C255D256E257F2500831183228333836C
:1038C00044875587668777874A015B0181E08822B4
:1038D0009924AA24BB24B094A09490948094811C31
:1038E000911CA11CB11C00891189228933890821EE
:1038F00019212A213B210425152526253725048356
:103900001583268337832AE0440F551F661F771FD0
:103910002A95D1F74C255D256E257F2504891589CB
:1039200026893789082119212A213B21402751273F
:103930006227732740875187628773871F910F9192
:10394000FF90EF90DF90CF90BF90AF909F908F90BF
:103950007F906F905F904F900895FC01408151815E
:10396000628173817F77452B462B472BC1F54481BC
:10397000558166817781452B462B472B81F5408504
:10398000518562857385452B462B472B41F5448530
:10399000558566857785452B462B472B01F544E5F4
:1039A00050E060E070E0408351836283738349E4B8
:1039B00050E060E070E044835583668377834EE493
:1039C00050E060E070E0408751876287738749E587
:1039D00050E060E070E044875587668777870895F8
:1039E000CF92DF92EF92FF920F931F93CF93DF93CB
:1039F000EC01488359836A837B8388899989AA89E2
:103A0000BB898C839D83AE83BF838C899D89AE895E
:103A1000BF8988879987AA87BB87888D998DAA8D4A
:103A2000BB8D8C879D87AE87BF87C12CD12C76013B
:103A3000C394F601E370FF27EE0FFF1FEE0FFF1F89
:103A4000EC0FFD1FD6011197A370BB27AA0FBB1F58
:103A5000AA0FBB1FAC0FBD1F8D919D910D90BC9106
:103A6000A02D9C01AD016EE15695479537952795A0
:103A70006A95D1F7282739274A275B2765E679E831
:103A800087E09CE60E94741D6C0D7D1D8E1D9F1DA0
:103A900000811181228133810627172728273927A2
:103AA00000831183228333838FEFC81AD80AE80A70
:103AB000F80A88E0C816D104E104F10409F0B9CF8E
:103AC000CE010E94AD1C08E010E0CE010E94191C3E
:103AD00001501109D1F7DF91CF911F910F91FF9004
:103AE000EF90DF90CF900895DB018F939F930E941A
:103AF000C01DBF91AF91A29F800D911DA39F900DFE
:103B0000B29F900D1124089597FB072E16F4009490
:103B100007D077FD09D00E94CB1D07FC05D03EF4ED
:103B2000909581959F4F0895709561957F4F089569
:103B3000A1E21A2EAA1BBB1BFD010DC0AA1FBB1FB1
:103B4000EE1FFF1FA217B307E407F50720F0A21B23
:103B5000B30BE40BF50B661F771F881F991F1A9490
:103B600069F760957095809590959B01AC01BD01BA
:103B7000CF010895EE0FFF1F0590F491E02D0994F9
:103B80000E94DF1DA59F900DB49F900DA49F800DF6
:103B9000911D11240895AA1BBB1B51E107C0AA1F48
:103BA000BB1FA617B70710F0A61BB70B881F991FDE
:103BB0005A95A9F780959095BC01CD010895A29FD3
:103BC000B001B39FC001A39F700D811D1124911DF1
:103BD000B29F700D811D1124911D0895F894FFCF9F
:103BE00000C18081000000FFFFFFFF00E100000036
:103BF00000000000000000CA0A110BF40A040BE0E8
:103C00000AF10A4C494E453A00594F552054595033
:103C1000453A006261732E6370700047616D652ED6
:0E3C20006163740025732825642925780A0045
:00000001FF
