:100000000C94DC040C9404050C9404050C94040575
:100010000C9404050C9404050C9404050C9404053C
:100020000C9404050C9404050C948E080C9424077D
:100030000C9404050C9404050C9404050C9404051C
:100040000C9404050C9404050C9404050C9404050C
:100050000C9404050C9404050C9404050C943809C4
:100060000C9404050C9404050C9404050C940405EC
:100070000C9404050C9404050C9404050C940405DC
:100080000C9404050C9404050C9404050C940405CC
:100090000C9404050C9404050C9404050C940405BC
:1000A0000C9404050C9404050C9404051201000240
:1000B000EF020140412336800001010203011201D9
:1000C00000020000004041233680000101020301CC
:1000D00041726475696E6F204C4C43005553422049
:1000E000494F20426F6172640004030904080B0049
:1000F00002020201000904000001020200000524BE
:100100000010010524010101042402060524060053
:10011000010705810310004009040100020A0000E4
:10012000000705020240000007058302400000436B
:100130006F6F6E6563742100322E20507265737389
:1001400020416E79206B65792E00312E20436F6E31
:100150006E6563742053657269616C205465726DBD
:100160002E0041726475626F792045646974696F0D
:100170006E00544F594F5348494B492054696E798A
:10018000204261736963000F1011121314151617C2
:1001900018191A1B0D0E2802090D0F101112141533
:1001A000161718191A1B1C1D1E1F5E034D0344034E
:1001B0002D031B031103FB02E402D002BF02AA02BB
:1001C0009802830274025F024A0234022002130280
:1001D0000302F601E701D80141626F72742062796F
:1001E000205B4553435D00496E7465726E616C20FF
:1001F0006572726F720053796E74617820657272E5
:100200006F7200496C6C6567616C20636F6D6D6126
:100210006E6400273D27206578706563746564000F
:10022000272827206F72202729272065787065638B
:1002300074656400556E646566696E6564206C69FA
:100240006E65206E756D626572004946207769742F
:10025000686F757420636F6E646974696F6E004CAB
:10026000455420776974686F75742076617269618E
:10027000626C6500464F5220776974686F75742010
:10028000544F00464F5220776974686F757420761A
:1002900061726961626C65004E455854206D6973E6
:1002A0006D6174636820464F52004E455854207764
:1002B0006974686F757420636F756E746572004E33
:1002C00045585420776974686F757420464F520002
:1002D000464F5220746F6F206D616E79206E65738A
:1002E0007465640052455455524E20737461636BBB
:1002F00020756E646572666C6F7700474F53554288
:1003000020746F6F206D616E79206E657374656403
:10031000004C6973742066756C6C0049636F64658A
:10032000206275666665722066756C6C0053756236
:10033000736372697074206F7574206F66207261C8
:100340006E6765004F766572666C6F770044657600
:100350006973696F6E206279207A65726F004F4B06
:10036000002A0424041D041904160411040C0409B1
:100370000405040004FA03F403F003EE03EC03EABB
:1003800003E803E603E403E203E003DE03DB03D94F
:1003900003D703D503D203D003CE03CA03C603C1D8
:1003A00003BC03B803B403B003AB0350534554007C
:1003B000434C53004E45570052554E004C49535440
:1003C0000053495A450041425300524E44004000F8
:1003D0003C003C3D003D003E0023003E3D00290026
:1003E000280025002F002A002B002D003B002C00A8
:1003F0004C4554005052494E5400494E50555400FB
:1004000053544F500052454D004946004E455854F4
:10041000005354455000544F00464F52005245542B
:1004200055524E00474F53554200474F544F00D549
:10043000F08D14A1C881CFD9F1AF200000000000D9
:10044000003E5B4F5B3E3E6B4F6B3E1C3E7C3E1C5A
:10045000183C7E3C181C577D571C1C5E7F5E1C00A0
:10046000183C1800FFE7C3E7FF0018241800FFE757
:10047000DBE7FF30483A060E2629792926407F051A
:100480000507407F05253F5A3CE73C5A7F3E1C1C30
:1004900008081C1C3E7F14227F22145F5F005F5FF0
:1004A00006097F017F006689956A606060606094DC
:1004B000A2FFA29408047E040810207E20100808E1
:1004C0002A1C08081C2A08081E101010100C1E0CEC
:1004D0001E0C30383E3830060E3E0E06000000007E
:1004E0000000005F00000007000700147F147F1465
:1004F000242A7F2A122313086462364956205000AA
:1005000008070300001C2241000041221C002A1C95
:100510007F1C2A08083E0808008070300008080880
:100520000808000060600020100804023E514945A0
:100530003E00427F400072494949462141494D33BE
:100540001814127F1027454545393C4A4949314125
:10055000211109073649494936464949291E0000F3
:100560001400000040340000000814224114141448
:100570001414004122140802015909063E415D5934
:100580004E7C1211127C7F494949363E414141223D
:100590007F4141413E7F494949417F090909013E67
:1005A000414151737F0808087F00417F410020408E
:1005B000413F017F081422417F404040407F021CA0
:1005C000027F7F0408107F3E4141413E7F090909B7
:1005D000063E4151215E7F09192946264949493283
:1005E00003017F01033F4040403F1F2040201F3F49
:1005F0004038403F631408146303047804036159CE
:10060000494D43007F41414102040810200041410F
:10061000417F0402010204404040404000030708BB
:100620000020545478407F284444383844444428B7
:10063000384444287F385454541800087E0902185E
:10064000A4A49C787F0804047800447D40002040E6
:10065000403D007F1028440000417F40007C04782A
:1006600004787C080404783844444438FC18242472
:100670001818242418FC7C080404084854545424F2
:1006800004043F44243C4040207C1C2040201C3C6F
:100690004030403C44281028444C9090907C446466
:1006A000544C4400083641000000770000004136F9
:1006B000080002010204023C2623263C1EA1A1617F
:1006C000123A4040207A38545455592155557941B1
:1006D0002154547841215554784020545579400C88
:1006E0001E52721239555555593954545459395569
:1006F0005454580000457C410002457D42000145AC
:100700007C40F0292429F0F0282528F07C54554518
:10071000002054547C547C0A097F493249494932AB
:100720003248484832324A4848303A4141217A3AC0
:1007300042402078009DA0A07D39444444393D408A
:1007400040403D3C24FF2424487E4943662B2FFC37
:100750002F2BFF0929F620C0887E090320545479E5
:10076000410000447D413048484A32384040227AB6
:10077000007A0A0A727D0D19317D2629292F282633
:100780002929292630484D4020380808080808083B
:100790000808382F10C8ACBA2F102834FA00007B94
:1007A000000008142A142222142A1408950022009A
:1007B00095AA005500AAAA55AA55AA000000FF0054
:1007C000101010FF00141414FF001010FF00FF1091
:1007D00010F010F0141414FC001414F700FF0000C3
:1007E000FF00FF1414F404FC141417101F10101F42
:1007F000101F1414141F00101010F0000000001F30
:10080000101010101F10101010F010000000FF103A
:100810001010101010101010FF10000000FF140036
:1008200000FF00FF00001F10170000FC04F4141468
:100830001710171414F404F40000FF00F714141434
:1008400014141414F700F7141414171410101F10B4
:100850001F141414F4141010F010F000001F101FD7
:100860000000001F14000000FC140000F010F01045
:1008700010FF10FF141414FF141010101F000000BC
:1008800000F010FFFFFFFFFFF0F0F0F0F0FFFFFFC0
:100890000000000000FFFF0F0F0F0F0F3844443817
:1008A000447C2A2A3E147E02020606027E027E0252
:1008B00063554941633844443C04407E201E200671
:1008C000027E020299A5E7A5991C2A492A1C4C72AE
:1008D00001724C304A4D4D303048784830BC625A35
:1008E000463D3E494949007E0101017E2A2A2A2AC5
:1008F0002A44445F444440514A444040444A5140A1
:100900000000FF0103E080FF000008086B6B083661
:1009100012362436060F090F0600001818000000D2
:100920001010003040FF0101001F01011E00191DC1
:100930001712003C3C3C3C0000000000000000029C
:1009400000090F0000030401000C0000000000007B
:100950000000000000000000000000040802011078
:1009600040804010204080408008020401804020E8
:1009700010020110801020404020040404040403ED
:10098000040502020202040302020202060606062F
:1009900006060404020202040400000000250028E8
:1009A000002B002E00310000000000240027002A48
:1009B000002D00300000340B11241FBECFEFDAE011
:1009C000DEBFCDBF11E0A0E0B1E0E2E5FBE302C095
:1009D00005900D92AE34B107D9F728E0AEE4B1E04E
:1009E00001C01D92A131B207E1F714E0CCEDD4E0D3
:1009F00004C02197FE010E94731DCB3DD107C9F7AA
:100A00000E9407050C94A71D0C94000008950E94F5
:100A1000EC090E9406058EE491E00E940E090E94F6
:100A20002B09C0E0D0E00E942F092097E1F30E943B
:100A30000000F9CF40915201509153012091500193
:100A40003091510142175307B4F49091E80095702A
:100A5000E1F39091E80092FD19C08093F10080913C
:100A600052019091530101968F739927892B19F4A4
:100A70008EEF8093E800809152019091530101968E
:100A8000909353018093520181E0089580E008958E
:100A9000EF92FF920F931F93CF93DF93F82E192FAE
:100AA000E62E042F81E0860F880F0E941A0583E04E
:100AB0000E941A05CF2DD12FEC0EFD2EF11CCE1564
:100AC000DF05B9F007FF13C0FE0184910E941A05EB
:100AD000182F80E00E941A05812321968111EFCF03
:100AE000DF91CF911F910F91FF90EF900895888132
:100AF000EDCF81E0F5CF8091D70081608093D70062
:100B000080EA8093D80089B5806189BD89B582600B
:100B100089BD09B400FEFDCF61E070E080E090E0A7
:100B20000E94B3098091D8008F7C80618093D800A7
:100B30008091E000807F8093E0000895CF93DF9361
:100B40001F92CDB7DEB71982CE0101960E949F0A8F
:100B50000E94CD0BBE016F5F7F4F0E94490B8981C0
:100B60000F90DF91CF9108952FB7FC012083F89467
:100B700067706093E9000895CF93DF931F92CDB71C
:100B8000DEB7682FCE0101960E94B4058091F20075
:100B900099819FBF0F90DF91CF910895EF92FF92BF
:100BA0000F931F93CF93DF931F92CDB7DEB7909132
:100BB0005601992371F157FD2CC08A017B01682FE2
:100BC000CE0101960E94B4058091F20090E00817D2
:100BD00019070CF4C801282FF70144E6215030F022
:100BE000409357013091F1003193F8CF009739F0DD
:100BF0002091F200211103C02BE62093E800298107
:100C00002FBF0F90DF91CF911F910F91FF90EF9029
:100C100008958FEF9FEFF5CFCF93DF931F92CDB75E
:100C2000DEB741E050E0BE016F5F7F4F0E94CE050E
:100C3000019731F4898190E00F90DF91CF91089571
:100C40008FEF9FEFF9CFCF93DF931F92CDB7DEB732
:100C5000682FCE0101960E94B4059091E800892F7B
:100C6000807295FF04C09091F20080E4891B998105
:100C70009FBF0F90DF91CF9108956F927F928F92D7
:100C80009F92AF92BF92CF92DF92EF92FF920F931B
:100C90001F93CF93DF931F92CDB7DEB7A82E6B01C2
:100CA000B42E052F80915601811112C08FEF9FEF56
:100CB0000F90DF91CF911F910F91FF90EF90DF90F8
:100CC000CF90BF90AF909F908F907F906F9008953E
:100CD000E42EF52E8AEF982E8A2D8072882E9AE3C4
:100CE000792E8A2D8074682EE114F10409F449C02C
:100CF0008A2D0E942306182F81110AC09A949920E8
:100D0000A9F261E070E080E090E00E94B309ECCFCE
:100D10008E151F0411F00CF01E2D6A2DCE010196C8
:100D20000E94B4058091E80085FD03C089818FBFD2
:100D3000DBCF812F90E0E81AF90A882029F01150C2
:100D4000A0F01092F100FBCFF601A7FC0AC01150F1
:100D500050F021912093F100FACF24912093F100DB
:100D600031961150D0F7C80ED91E8091E80085FF4A
:100D700005C0E114F104D1F66620C1F27092E800DA
:100D8000D5CF5D9884E6809358018B2D902F90CF1E
:100D90001092E90010925301109252019093510168
:100DA000809350010895DF92EF92FF920F931F936B
:100DB000CF93DF93D82E8A01EB017B01E40EF51E61
:100DC000CE15DF0559F0D7FE12C0FE0184910E94B6
:100DD0001A0521968111F4CF0FEF1FEFC801DF91A3
:100DE000CF911F910F91FF90EF90DF900895888130
:100DF000EECFCF93DF93EC019B01B4E6ABEF21156F
:100E00003105F1F0A9012134310514F040E450E03E
:100E10008091E80082FFFCCF942FFB01E21BF30BD3
:100E2000EC0FFD1F915028F08091F10080833196E6
:100E3000F9CFB0935701A093E800241B350BDFCF07
:100E4000CB01DF91CF9108951F920F920FB60F92B1
:100E50001124CF92DF92FF920F931F932F933F9312
:100E60004F935F936F937F938F939F93AF93BF93B2
:100E7000EF93FF93CF93DF93CDB7DEB76C97DEBFD1
:100E8000CDBF1092E9008091E80083FF2FC089E078
:100E9000FE017596FE2E0F2F815029F09091F100E2
:100EA00090833196F9CF84E68093570182EF809347
:100EB000E8008D8987FF38C09091E80090FFFCCF53
:100EC000982F907609F00DC19E894F89588D2F89F2
:100ED000188D911130C0803859F58091550180935B
:100EE000F1001092F1008EEF8093E8006C960FB63F
:100EF000F894DEBF0FBECDBFDF91CF91FF91EF9190
:100F0000BF91AF919F918F917F916F915F914F9121
:100F10003F912F911F910F91FF90DF90CF900F90F5
:100F20000FBE0F901F9018959EEF9093E800C8CFCA
:100F30001092F100D6CF913059F48111D4CF4130C5
:100F4000510589F6809155018D7F80935501CBCF56
:100F5000933049F48111C7CF4130510521F680917A
:100F600055018260F2CF953041F48091E80080FF16
:100F7000FCCF20682093E300B6CF963009F083C001
:100F8000CB8CDC8C123039F590E080E00E94C806F2
:100F90000E949E051F8299E099831A8391E09E83A7
:100FA00090EA98879AEF99872091520130915301E6
:100FB000275F3F4F3C832B838D83C6010E94C80669
:100FC00049E050E0BE016F5F7F4F80E00E94D30692
:100FD0000E949E0588CFC6010E94C8060E94CD0BC4
:100FE0006F2D702F0E94710B009731F00CF07BCFAA
:100FF00081E28093EB007ACF1130B1F48B8D9C8D20
:10100000089719F481E080934F0180914F016EEBB6
:1010100070E0882311F06CEA70E0FB01449150E02D
:1010200080E80E94D3065FCF133011F78F898823A1
:1010300039F1823049F440E86CE08CED90E00E9498
:1010400048058823A9F24FCF813029F440E86BE0AE
:1010500080ED90E0F4CF833059F60E94CD0B8E01E5
:101060000F5F1F4FB8010E94900BF8010190002004
:10107000E9F73197BF01601B710B40E0C801DFCF7A
:1010800069EE70E0CACF973009F4B2CF983021F4FE
:1010900081E08093F10027CF993009F024CF83704D
:1010A00009F0A6CFE1E0F1E081E031E096E32191A3
:1010B000222371F08093E9003093EB00DF01119758
:1010C0002C912093EC009093ED008F5F873079F79F
:1010D0008EE78093EA001092EA008F898093560190
:1010E00002CF8B8D9C8D0E94C806898D811105C011
:1010F0008F2D902F0E94AA0AA4CF0E94CD0B6F2D96
:10110000702F0E94AF0B9DCF8093E9008091F20079
:10111000882319F08AE38093E80008951F920F92C4
:101120000FB60F9211242F933F934F935F936F93BA
:101130007F938F939F93AF93BF93CF93EF93FF933F
:10114000C091E1008091E100837F8093E100809372
:10115000E100C3FF0FC01092E90081E08093EB0033
:101160001092EC0082E38093ED001092560188E02B
:101170008093F000C2FF1BC083E00E94840880912E
:101180005801882341F08091580181508093580183
:10119000811101C05D9A80915701882341F08091AF
:1011A0005701815080935701811101C0289AC4FFD3
:1011B00023C08091E2008E7E81608093E200809166
:1011C000E1008F7E8093E100809154018E7E8061EA
:1011D00080935401FF91EF91CF91BF91AF919F9177
:1011E0008F917F916F915F914F913F912F910F90D0
:1011F0000FBE0F901F901895C0FFECCF8091E200BA
:101200008E7E80618093E2008091E1008E7E8093EB
:10121000E100809154018E7E8160DACF10925601F8
:1012200010925501109254010E947B058091E100BB
:101230008E7E8093E1008DE08093E200559A209AA3
:10124000EEEFFFE7859194918B3F9C4D19F481E07F
:101250008093B20108950E94E10B0C94090C0E9446
:10126000050C882321F00E941F160C94070C08958A
:101270001F920F920FB60F9211242F933F938F93CB
:101280009F93AF93BF9380915A0190915B01A0917E
:101290005C01B0915D013091590123E0230F2D379E
:1012A00058F50196A11DB11D2093590180935A0153
:1012B00090935B01A0935C01B0935D0180915E010E
:1012C00090915F01A0916001B09161010196A11D13
:1012D000B11D80935E0190935F01A0936001B09374
:1012E0006101BF91AF919F918F913F912F910F908D
:1012F0000FBE0F901F90189526E8230F0296A11D90
:10130000B11DD2CF2FB7F89460915A0170915B0153
:1013100080915C0190915D012FBF08953FB7F894D3
:1013200080915E0190915F01A0916001B091610197
:1013300026B5A89B05C02F3F19F00196A11DB11D30
:101340003FBFBA2FA92F982F8827BC01CD01620F6C
:10135000711D811D911D42E0660F771F881F991F27
:101360004A95D1F708958F929F92AF92BF92CF92F4
:10137000DF92EF92FF926B017C010E948E094B017C
:101380005C01C114D104E104F104E9F00E94681683
:101390000E948E09681979098A099B09683E734081
:1013A0008105910570F321E0C21AD108E108F10826
:1013B00088EE880E83E0981EA11CB11CC114D104D4
:1013C000E104F10429F7FF90EF90DF90CF90BF90F8
:1013D000AF909F908F900895789484B5826084BD7B
:1013E00084B5816084BD85B5826085BD85B5816029
:1013F00085BDEEE6F0E0808181608083E1E8F0E089
:101400001082808182608083808181608083E0E8B7
:10141000F0E0808181608083E1E9F0E0808182609A
:101420008083808181608083E0E9F0E08081816059
:101430008083E1ECF0E08081846080838081826041
:101440008083808181608083E3ECF0E08081816033
:101450008083E0ECF0E0808182608083E2ECF0E069
:10146000808181608083EAE7F0E08081846080830E
:1014700080818260808380818160808380818068B8
:1014800080830895CF93DF931F92CDB7DEB7698332
:10149000DC01ED91FC910280F381E02D41E050E010
:1014A000BE016F5F7F4F09950F90DF91CF91089537
:1014B000CF93DF93EC018C859D8597FF05C082E07B
:1014C0000E940C069D878C878C859D85DF91CF912E
:1014D000089583E00C948408FC018485958597FD2C
:1014E00006C082E00E94BC0590E00196089582E06B
:1014F0000E94BC0590E00895FC018485958597FDC8
:1015000005C02FEF3FEF35872487089582E00C94C4
:101510000C06CF93DF93EC0180911201882331F008
:1015200083E00E943D061816190634F081E090E031
:101530009B838A8380E090E0DF91CF910895FC0146
:1015400090819E5F908342E450E06DEE70E080E811
:101550000C94D306FC0191818081813A61F491322F
:1015600009F073C047E050E06BE071E080E00E945A
:10157000D30681E00895813209F067C0933269F49F
:1015800082819381B0E0A0E08093070190930801ED
:10159000A0930901B0930A01ECCF903209F057C033
:1015A00067E070E08BE091E00E94F9068091B20163
:1015B000E0E0F8E0882311F0EEEFFAE080910B0113
:1015C00090910C01A0910D01B0910E01803B9440CF
:1015D000A105B105B9F48091120180FD13C0EE3F61
:1015E0008AE0F80721F587E797E79183808388E110
:1015F0009BE00FB6F894A895809360000FBE90937F
:101600006000B7CF0FB6F894A8958091600088610C
:1016100080936000109260000FBEA895EE3F2AE014
:10162000F20761F41092FF0A1092FE0AA2CF8081A5
:1016300091819093FF0A8093FE0AD5CF8091FE0A94
:101640009091FF0A9183808394CF80E00895923235
:1016500009F08FCF828180931201A8CF2FEF3FEF47
:10166000FC01358724870895E2E6F1E013821282B7
:1016700088EE93E0A0E0B0E084839583A683B783EF
:1016800087E191E0918380838FEF9FEF9587848737
:101690000895EF92FF920F931F93CF93DF937B01F7
:1016A000FC01C281D38110E000E0209791F0E88135
:1016B000F9810280F381E02DB701CE01099597FDF4
:1016C00006C0080F191F0884D985C02DEECF0FEF73
:1016D0001FEFC801DF91CF911F910F91FF90EF9005
:1016E00008950F931F93CF93DF938B01FC01C28169
:1016F000D381209771F0E881F9810480F581E02D94
:10170000B801CE010995009731F40884D985C02D20
:10171000F0CF90E080E0DF91CF911F910F9108957D
:101720000F931F93CF93DF938B01FC01C281D38171
:10173000209771F0E881F9810680F781E02DB801EA
:10174000CE010995080F111D0884D985C02DF0CF51
:10175000F8011082DF91CF911F910F9108950F939F
:101760001F93CF93DF938B01FC01C281D38120971C
:1017700071F0E881F9810190F081E02DB801CE018E
:101780000995811105C00884D985C02DF0CF80E06E
:10179000DF91CF911F910F9108958091B301811135
:1017A0000DC082E08093BB0184E08093BC01109265
:1017B000BE011092BD0181E08093B3018BEB91E0FB
:1017C0000895E4E6F0E08081806480838081816018
:1017D0008083808180688083808182608083E5E669
:1017E000F0E08081816080830E940B190E94901834
:1017F0000C94FD1983B7817F83BF83B7816083BF5A
:10180000889583B78E7F83BF08950C949E180C949F
:101810008D1944E252E060E08FEB91E00E9469167E
:1018200040E855E260E070E082E691E00C942E0B17
:10183000E091D503E23024F487E08093E203089539
:10184000AFEFAE0FB0E0AA0FBB1FAA52BC4F8D91F5
:101850009C919093590380935803E250E093D503F1
:10186000F0E0EE0FFF1FEA52FC4F808191819093D0
:101870005703809356030895CF93DF932091B603C7
:1018800089E025304CF1822F022E000C990BFC01CF
:10189000EE0FFF1FEB54FC4F0190F081E02DDC01B7
:1018A000AA0FBB1FAD54BC4F6D917C91DC01AA0FF8
:1018B000BB1FAF54BC4FCD91DC91A0915603B091AA
:1018C0005703AD014F5F5F4F50935703409356034B
:1018D0003C91363231F08AE08093E203DF91CF9180
:1018E0000895AD014E5F5F4F5093570340935603E9
:1018F00011963C913E171F0611F08BE0EDCFEE0FD5
:10190000FF1FE65AFC4F40815181460F571F5183FC
:10191000408377FF07C04C175D074CF42550209398
:10192000B603DCCF672B19F0C417D507BCF3FC0155
:10193000EE0FFF1FE155FC4F20813181309357039B
:1019400020935603880F991FFC01E355FC4F8081BB
:1019500091819093590380935803C0CFE09156032F
:10196000F09157038081883231F03196F09357031C
:10197000E0935603F3CF0895E0915803F091590393
:101980008081882341F08E0F9F2F911D90935903E2
:1019900080935803F1CF0895009771F0BC0197FF31
:1019A00003C0719561957109072E000C880B990B86
:1019B0000E94C31ACB0101960895CF93DF93C1E033
:1019C000D0E0A0915603B0915703EC91EF50E8316D
:1019D00008F0B0C0F0E0E151F34F0C94731D270DF7
:1019E000210D9A0D9A0D9A0D400D9A0D9A0D9A0D92
:1019F0009A0D9A0D9A0D9A0D430D5B0D690D7A0D96
:101A00009A0D9A0D9A0D9A0D9A0D070D300DCD0174
:101A10000196909357038093560311968D919C9154
:101A200012971396B0935703A09356039C01C29F3D
:101A3000C001C39F900DD29F900D1124DF91CF91D3
:101A400008951196B0935703A0935603BACF1196F9
:101A5000B0935703A0935603D195C195D109B1CF47
:101A6000CD01029690935703809356031196EC9103
:101A7000F0E0EE0FFF1FE65AFC4F80819181D6CF38
:101A80000E947F0ED3CF1196B0935703A0935603B5
:101A90000E947F0E2091E2032111C8CF843191056D
:101AA00024F023E02093E203C1CF880F991FFC01AB
:101AB000E257FC4FE2CF1196B0935703A093560321
:101AC0000E947F0E2091E2032111B0CF0E94CC0C26
:101AD000ADCF1196B0935703A09356030E947F0E8B
:101AE0002091E2032111A2CF97FFA0CF919581957C
:101AF00091099CCFCD010196909357038093560393
:101B000011968C911197843129F412968C91129729
:101B1000853131F081E18093E20390E080E086CF6F
:101B20001396B0935703A093560380912802909187
:101B300029027CCF84E1EFCFCF93DF930E94DD0CAD
:101B4000EC018091E203811135C0E0915603F091E0
:101B500057038081823109F1833191F0813161F540
:101B60003196F0935703E09356030E94DD0C9E01DB
:101B7000289FE001299FD00D389FD00D1124E5CF7B
:101B80003196F0935703E09356030E94DD0CBC019D
:101B9000CE010E943D1DEC01D8CF3196F093570342
:101BA000E09356030E94DD0CBC01892B49F481E0CF
:101BB0008093E203CFEFDFEFCE01DF91CF91089565
:101BC000CE010E943D1DEB01C0CFCF93DF930E9459
:101BD0009C0DEC018091E20381111DC0E091560340
:101BE000F091570380818F3061F08031B1F43196EC
:101BF000F0935703E09356030E949C0DC80FD91F22
:101C0000EDCF3196F0935703E09356030E949C0D5D
:101C1000C81BD90BE3CFCFEFDFEFCE01DF91CF9120
:101C20000895CF93DF930E94E50DEC018091E203CC
:101C3000811162C0E0915603F09157038081883191
:101C400009F442C048F4863109F44AC0873111F1E1
:101C5000CE01DF91CF9108958A3151F170F08B312F
:101C6000B9F73196F0935703E09356030E94E50DC0
:101C700021E0C817D907CCF00BC03196F093570379
:101C8000E09356030E94E50D21E08C179D0769F053
:101C900020E00BC03196F0935703E09356030E9467
:101CA000E50D21E08C179D0799F3C22FD0E0C2CF3C
:101CB0003196F0935703E09356030E94E50D21E01F
:101CC0008C179D0794F7E4CF3196F0935703E09378
:101CD00056030E94E50D21E08C179D0734F3D8CF01
:101CE0003196F0935703E09356030E94E50D21E0EF
:101CF000C817D907D4F6CCCFCFEFDFEFA9CFE0914B
:101D00005603F0915703CF010196909357038093A8
:101D100056038081843131F081E18093E20390E0C9
:101D200080E008950E94110E2091E2032111F7CF67
:101D3000E0915603F09157039F012F5F3F4F30937F
:101D40005703209356032081253131F708950E94CF
:101D5000110E2091E203222321F08FE08093E20311
:101D60000895892B11F40C94AE0C0895CF93E09153
:101D70005603F0915703CF01019690935703809338
:101D80005603C08101969093570380935603818137
:101D9000893129F082E18093E203CF9108950E9476
:101DA000110E2091E2032111F8CFEC2FF0E0EE0F9D
:101DB000FF1FE65AFC4F91838083EFCF0F931F9351
:101DC000CF93DF93E0915603F0915703CF01019633
:101DD00090935703809356038081863241F08CE0C4
:101DE0008093E203DF91CF911F910F910895C181FC
:101DF0000E94B60E8091E2038111F4CFE091560368
:101E0000F0915703CF0101969093570380935603A7
:101E10008081843011F08DE0E3CF0E94110E8C019F
:101E2000E0915603F09157038081853009F5319692
:101E3000F0935703E09356030E94110E97FF09C0D9
:101E400021E030E8281B390B021713075CF482E00D
:101E5000C7CF009739F02FEF3FE7281B390B20172A
:101E60003107ACF3E091B603EB302CF088E0B8CF4B
:101E700081E090E0F0CFAE2FAA0FBB0BA954BC4F6E
:101E800020915803309159032D933C93A1E0AE0F5C
:101E9000AA0FBB0BA954BC4F209156033091570396
:101EA0002D933C93A2E0AE0FAA0FBB0BA954BC4FDD
:101EB0000D931C93A3E0AE0FAA0FBB0BA954BC4F0C
:101EC0008D939C9385E08E0F8093B603EC5FEE0FAD
:101ED000FF0BE954FC4FD0E0D183C08383CFCF9375
:101EE000DF930E947F0EEC018091E203811114C008
:101EF00083E0C431D10574F4E0915603F0915703A7
:101F0000CF010196909357038093560380818931C6
:101F100031F082E18093E203DF91CF9108950E9436
:101F2000110E2091E2032111F7CFCC0FDD1FC25714
:101F3000DC4F99838883F0CFE0915603F0915703EB
:101F4000CF01019690935703809356038081863288
:101F500011F40C94B60E8C3111F40C946F0F8EE0CA
:101F60008093E2030895CF93DF930E94110EC82F50
:101F70008091E203811110C0E0915603F091570364
:101F8000CF010196909357038093560380818D3043
:101F900031F084E18093E203DF91CF9108950E94B4
:101FA000110ED82F8091E2038111F6CFE0915603F4
:101FB000F0915703CF0101969093570380935603F6
:101FC00080818D3031F70E94110E9091E2039111C2
:101FD000E3CF482F6D2F8C2FDF91CF910C94D21926
:101FE000E7E8F1E09491981739F0319691E0E739FC
:101FF000F907C1F780E0089581E00895803239F053
:1020000097EF980F81E0953018F080E0089581E017
:1020100008958F7D9FEB980F81E09A3108F080E062
:102020000895982F81E0923221F0973211F080E0EC
:1020300008950895209156033091570382E02A3283
:10204000380720F081E02655334008F080E00895FD
:102050002091F4013091F5012133310524F084E021
:102060008093E2030895A9014F5F5F4F5093F501FC
:102070004093F40121543E4FF90187AB0895EF924C
:10208000FF920F931F93CF93DF938C017B01EC01A1
:10209000CE01801B910B8E159F0524F489910E941F
:1020A0002810F6CFDF91CF911F910F91FF90EF9005
:1020B00008950F931F93CF93DF93FC01D0E0C0E00E
:1020C0008AE08F010F5F1F4F8C9FA0018D9F500DE5
:1020D00011242081240F352F311D205331092C1755
:1020E0003D074CF482E08093E203C801DF91CF9179
:1020F0001F910F910895F801E901908190539A3052
:1021000000F385E20E9428108C2F0E9428108D2F4A
:102110000E942810EACFEF92FF920F931F93CF9364
:10212000DF93EC0121967E0100E0F70111917F0120
:10213000812F0E941110811105C010521F3510F41B
:102140000F5FF3CF87E20E942810802F0E94281093
:1021500010E0B801CE010E943F10C00FD11F88814E
:102160000E94111081112196CE01DF91CF911F9114
:102170000F91FF90EF9008950F931F93CF93DF93EC
:102180008C0186E20E942810E801899181540E9406
:102190002810CE01DF91CF911F910F910895FC017E
:1021A0002081222319F08181928108958FEF9FE78A
:1021B0000895EF92FF921F93CF93DF937C01CAE2C1
:1021C000D2E01881112349F0CE010E94CF108E1564
:1021D0009F051CF4C10FD11DF4CFCE01DF91CF912B
:1021E0001F91FF90EF900895EF92FF920F931F932E
:1021F000CF93DF9300912802109129028091F4017E
:102200009091F501800F911F8C32914054F085E040
:102210008093E203DF91CF911F910F91FF90EF9098
:10222000089586EF91E00E94CF107C010E94D910A2
:10223000EC010E94CF108E159F0529F58881081B9F
:1022400011091093290200932802E8817E01EE0E05
:10225000F11CDE01F701808190E0BC01009791F054
:10226000A7019D010197FA011191AF018F3F9807D6
:1022700029F4A60FB71FE60EF71EECCFF901119354
:102280009F01F0CF1C928091F4019091F501FE0125
:102290008430910521F481E08093BF01BBCF208180
:1022A000222319F0E20FF11DFACF8E0F9F1F9F011D
:1022B0002F5F3F4FDC011196EC1BFD0B8E1B9F0B1C
:1022C000A817B90729F0F90142919F014E93F8CF61
:1022D0008091F4019091F5018093F601E6EFF1E031
:1022E0008C0F9D1F8C179D0719F021912993FACF10
:1022F00080912802909129022091F4013091F501FA
:10230000820F931F9093290280932802C4CF0F93CA
:102310001F93CF93DF930E94110E8C018091E203F3
:1023200081110CC0C8010E94D910EC010E94CF108D
:102330008017910741F080E18093E203DF91CF9114
:102340001F910F910895D0935903C093580323967A
:10235000D0935703C0935603F1CF0F931F93CF939E
:10236000DF930E94110E8C018091E20381110CC059
:10237000C8010E94D910EC010E94CF10801791076C
:1023800041F080E18093E203DF91CF911F910F91A3
:102390000895E091D503E53014F086E0F3CFAE2F39
:1023A000AA0FBB0BAA52BC4F8091560390915703C2
:1023B0008D939C9382E08E0F8093D503EF5FEE0F99
:1023C000FF0BEA52FC4F809158039091590391837F
:1023D0008083D0935903C09358032396D093570317
:1023E000C0935603D1CFCF93BC0121E633E080E008
:1023F000F90145915491DB01461B570BFA01EA0F95
:10240000FB1F9491992321F09491CD91C917B1F3B9
:10241000E491EE2329F08F5F2E5F3F4F853241F725
:10242000CF9108950E94F31191E0853208F090E079
:10243000892F0895E82FF0E0EE0FFF1F9F012F591D
:102440003C4FF90185919491F901259134910196C0
:10245000FC013197E491E111FACF821B930B81507B
:1024600008950F931F93CF93DF93EC018E01219674
:10247000F80180810E94FE0F8111F8CFC801DF9121
:10248000CF911F910F910895EF92FF920F931F9399
:10249000CF93DF93EC010E94F311182F0E942810B4
:1024A000812F0E941A12C80FD11D1830A9F4CE0135
:1024B0000E9431128C0180E0E82EF12CE801CE0D53
:1024C000DF1D9881992311F08F5FF6CF0E942810AD
:1024D000B701C8010E943F10CE01DF91CF911F913B
:1024E0000F91FF90EF9008951F93CF93DF9382ECAD
:1024F00091E02091E203211110C00E943112EC0101
:102500008881811110C088E20E9428108091F60114
:10251000853239F484E08093BF01DF91CF911F9120
:10252000089585E0F8CFCE010E941212882321F091
:10253000CE010E944412DDCF188180ED810F8A30D8
:1025400020F4CE010E945910D4CF812F0E94111087
:10255000882321F0CE010E948B10CBCF812F0E94C7
:102560000910882321F0CE010E94BC10C2CF84E163
:102570008093E203D2CF682F82E691E00C94420A66
:102580008EE30E94BB12EFEBF1E01282118216AAD9
:1025900015AA82E080830895CF93DF93EC0189919F
:1025A000882319F00E94BB12FACFDF91CF910895D2
:1025B000CF93DF93EC01FE018491882321F00E94E8
:1025C000BB122196F8CFDF91CF910895CF92DF9281
:1025D000EF92FF920F931F93CF93DF9300D000D021
:1025E00000D01F92CDB7DEB77B0130E097FF04C06B
:1025F00091958195910931E01F8226E04AE0C42E31
:10260000D12C0FEF020FE1E0F0E0EC0FFD1FE00F27
:10261000F11DB6010E943D1D805D8083CB0118161F
:102620001906E4F0332351F00EEF020FE1E0F0E081
:10263000EC0FFD1FE00FF11D8DE2808310E086E0BE
:1026400090E06C01C01AD10ACE14DF044CF480E291
:102650000E94BB1281E0E81AF108F6CF202FD1CFFB
:1026600081E090E08C0F9D1F800F911F0E94CC1283
:1026700027960FB6F894DEBF0FBECDBFDF91CF9186
:102680001F910F91FF90EF90DF90CF900895CF9220
:10269000DF92EF92FF920F931F93CF93DF93EC01A2
:1026A000E881E83209F46AC0E53250F5F0E0EE0F57
:1026B000FF1FEF59FC4F859194910E94D812888199
:1026C000E7E9F1E09491891741F0319691E0EA3A17
:1026D000F907C1F780E20E94BB128881883059F463
:1026E000098110E022960150110908F447C0899130
:1026F0000E94BB12F8CF8E010F5F1F4FE801D0CFB1
:10270000E53291F470E060E089819A810E94E612DE
:102710008E010D5F1F4F8B810E94F00F8111EECF54
:1027200080E20E94BB12EACFE63249F48E010E5FCE
:102730001F4F89818F5B0E94BB128A81EDCF8E0172
:10274000E732E1F682E20E94BB120E5F1F4FC981A1
:10275000D0E078016E01219730F0F70181917F017F
:102760000E94BB12F8CF0C0D1D1D82E20E94BB120D
:10277000F8018081863209F0C1CFD2CFDF91CF91AD
:102780001F910F91FF90EF90DF90CF9008958DE013
:102790000E94BB128AE00C94BB120E94C713EAEAA3
:1027A000F1E0859194910E94D8120E94C71381E0B4
:1027B0008093BF010895CF93DF938091F60181321A
:1027C00009F44AC048F48032E1F086EF91E090933A
:1027D00059038093580357C0823231F08832A9F7E9
:1027E00087E08093BF0107C08091F701883231F004
:1027F00084E18093E203DF91CF9108950E94090C58
:10280000EFCF8091F701883221F19091FA0198324F
:1028100079F78532F1F487EF91E00E94CF100E94A2
:10282000D910EC0188818823D9F2CE010E94CF1003
:1028300070E060E00E94E61280E20E94BB12CE01CE
:1028400003960E9447130E94C7138881C80FD11DA9
:10285000E9CF90E080E0E3CF8091F701883241F644
:102860008091280290912902892B09F4B9CF109206
:10287000B6031092D5038AE292E0909359038093B5
:1028800058038DE292E0909357038093560386E0BD
:10289000A8CF0E94C7138091BF01863089F50E949E
:1028A0001A10882369F183E291E00E94CC12809192
:1028B0005803909159030E94CF1070E060E00E948D
:1028C000E61280E20E94BB12809158039091590356
:1028D00003960E9447130E94C713E091E203F0E0C1
:1028E000EE0FFF1FE655FE4F859194910E94D8127E
:1028F0000E94C7131092E20381E08093BF01089504
:1029000089E291E00E94CC1282EC91E00E94CC120C
:10291000E2CF0F931F93CF93DF9310E000E0E0919D
:102920005603F091570380818E3009F459C08832E4
:1029300009F456C08731E1F0873259F5CF0102968C
:102940009093570380935603C181D0E02197E09183
:102950005603F0915703CF3FDC0721F1CF010196D9
:10296000909357038093560380810E94BB12EECF51
:102970003196F0935703E09356030E94110E8C0199
:102980008091E203882371F0DF91CF911F910F9125
:1029900008950E94110E2091E2032111F5CFB80194
:1029A0000E94E612E0915603F091570380818D302A
:1029B00069F4CF0101969093570380935603818168
:1029C0008E3011F3883209F0AACFDECF8E3009F4B1
:1029D000A6CF883209F4A3CF84E18093E203D4CF59
:1029E000DF91CF911F910F910C94C71382E691E074
:1029F0000E947C0A893049F08F3709F488E09FE90A
:102A0000980F9A3108F48052089580E2F8CF82E658
:102A100091E00E946C0A21E0181619060CF020E0E3
:102A2000822F08950E94F21942E751E060E080E0B1
:102A30000E94BB1942E651E061E080E00E94BB19B0
:102A40004AE451E063E080E00E94BB1948E351E0B2
:102A500064E080E00E94BB190E940715882359F0AA
:102A60000E94F6144FE251E066E080E00E94BB193C
:102A700087E08093BF010895CF930E9407158823B4
:102A8000C9F00E94F614C82F8D30B1F40E94C7130C
:102A90008091C0019091C1019C012F5F3F4F309305
:102AA000C1012093C00181549E4FFC01138283E039
:102AB0008093BF01CF91089580EE8C0F8F35C8F4BD
:102AC0008091C0019091C101C097A4F78C2F0E9402
:102AD000BB128091C0019091C1019C012F5F3F4FBB
:102AE0003093C1012093C00181549E4FFC01C383E8
:102AF000E1CFC830F9F68091C0019091C10118165C
:102B00001906C4F688E00E94BB1280E20E94BB1244
:102B100088E00E94BB128091C0019091C101019791
:102B20009093C1018093C001C5CF0E9407158823EF
:102B300041F00E94F6148B3121F486E18093E20388
:102B40000895E0915603F091570380818832E9F4AB
:102B50000E941A10811104C087E08093BF0108957C
:102B6000A0915803B0915903EC91EA0FFB2FF11D8E
:102B7000F0935903E0935803CF01039690935703C2
:102B8000809356038081882339F3E0915603F091B6
:102B90005703CF0101969093570380935603E0812A
:102BA000E73208F044C0F0E0E852FA4E0C94731D8E
:102BB000FF15011603160516171617160716091620
:102BC0000B160D161716151613161716A015171631
:102BD000171617161716171617161716171617168D
:102BE0001716171617161716111617161716171683
:102BF0001D161D161D1619161B1617160F160C94EA
:102C000087110C94AD110C94180C0C94DE0E0C94DE
:102C10003C0C0C94A70E0C94AE0C0C94BC0C0C94B5
:102C2000B60E0C946F0F0C949C0F0C94891484E1D5
:102C300085CF0C94F2190C94B30F83E17FCFE09110
:102C4000BF01E83050F5F0E0E85DF94E0C94731DDB
:102C5000301638163B163E164116441647164A16CD
:102C60000E9412158091E203882389F10C94491483
:102C70000E94C012F7CF0E943C15F4CF0E9474123C
:102C8000F1CF0E94F410EECF0E94DB13EBCF0E9435
:102C90009515E8CF0E94CD13E5CF1F9288EE8F9354
:102CA00083E391E09F938F938BE391E09F938F93C6
:102CB00084E491E09F938F930E9469188DB79EB72B
:102CC00008960FB6F8949EBF0FBE8DBFCBCF089568
:102CD00008954115510549F01416150634F4FC0108
:102CE0006083415051090196F7CF08950F931F93C8
:102CF000CF938B01252F0E943D1DFB01C82F1E166F
:102D00001F063CF4522FB801CF010E947616482FBF
:102D1000292FC05DE42FF22FC193CF01CF911F91D6
:102D20000F910895AF92BF92CF92DF92EF92FF92F0
:102D30000F931F93CF93DF935B01FA01102FFE2CAB
:102D40000E943D1D6B01EC01161617061CF0223087
:102D5000310554F021503109E12C012FAF01B501AB
:102D6000C6010E949216FC01CF010196209721F422
:102D7000CD2811F4FF2069F0C05DC083DF91CF91B1
:102D80001F910F91FF90EF90DF90CF90BF90AF9089
:102D900008951083F3CF8F929F92AF92BF92CF92FC
:102DA000EF920F931F93CF93DF934B015C01D02FD2
:102DB0001E2DCC2D80E188169104A104B10418F4D5
:102DC000223031058CF021503109CC2EE12C0D2F11
:102DD000C501B401E4E09695879577956795EA95E6
:102DE000D1F70E94CB16AC0194012F703327CA0192
:102DF00001962115310549F489288A288B28B9F4D0
:102E0000111115C0FA01D08307C02A30310578F0BE
:102E1000CA502C0FFA012083DF91CF911F910F919F
:102E2000EF90CF90BF90AF909F908F900895205DCE
:102E3000F1CFCF92DF92EF92FF92CF936B017C01A3
:102E4000C22F80E1C816D104E104F10458F0C70193
:102E500034E096958795779567953A95D1F70E94D6
:102E60001917AC018FE0C822DD248AE0C816D1040E
:102E700058F0CA50CC0EFA01C192CF01CF91FF9009
:102E8000EF90DF90CF90089580E3C80EF4CFDC017F
:102E9000FB019D91992311F09193FBCFCF010895F0
:102EA0002F923F924F925F926F927F928F929F925A
:102EB000AF92BF92CF92EF92FF920F931F93CF9357
:102EC000DF9300D000D0CDB7DEB79A838983DB01D2
:102ED000FA0110E2712C612C3DE2F32E2C912111AC
:102EE00019C0A981BA811C920F900F900F900F907A
:102EF000DF91CF911F910F91FF90EF90CF90BF90F6
:102F0000AF909F908F907F906F905F904F903F9089
:102F10002F900895253269F0AD014F5F5F4F5C83BC
:102F20004B83A981BA812C935F011196BA83A9833F
:102F300095C011962C911197203329F1AD014E5F68
:102F40005F4F5C834B8330ED320F3A3008F0B0C0F6
:102F5000622E220F770890E3691A71088B809C809B
:102F6000AFEF8A1A9A0AAB81BC812C912C3609F4F6
:102F70005DC08CF4233609F490C0243639F1E98120
:102F8000FA811082B1CFCD0103969C838B8310E32D
:102F900012962C91D8CF233709F472C0283779F7CD
:102FA0009C828B8221E0DF016D917D915D0190E03B
:102FB00080E02223A9F121E6C22EEE24E394012F22
:102FC000930149815A810E94CB1620C09C828B823A
:102FD00021E05F01B2E0AB0EB11C8081918197FFCF
:102FE00009C0919581959109E981FA81F082319624
:102FF000FA83E983222369F0EE24E394012F9301FD
:1030000049815A816AE070E00E9492169A8389830E
:1030100025C049815A816AE070E00E947616F6CF99
:1030200021E649815A810E941917F0CF5F01B4E06F
:10303000AB0EB11C208031804280538081E6C82EC7
:10304000EE24E394012F930149815A81C201B10119
:103050000E94CB169A8389839C828B82F501AB8177
:10306000BC813CCF5F0144E0A40EB11C20803180C4
:103070004280538021E649815A81C201B101D3CFF8
:103080009C828B825F0152E0A50EB11C69817A811E
:10309000808191810E944717B9CF9C828B825F010A
:1030A00082E0A80EB11C2081A981BA812C933DCF6A
:1030B0002C36C1F23CF4233691F3243609F05FCF6D
:1030C00020E087CF2337F1F2283709F058CF20E0EE
:1030D0006ACFCF93DF93CDB7DEB7A8970FB6F8943A
:1030E000DEBF0FBECDBFAE01435D5F4FFA01619100
:1030F0007191AF01CE0101960E9450178E010F5FB2
:103100001F4FF12CF80141918F01442331F060E011
:103110008F2D0E949B19F394F5CF0E948D19FFCF3C
:1031200041E150E060E083EE93E00E946916E3EE37
:10313000F3E08CE3808380E1848708950F931F93ED
:103140000E9482092091F003222391F02091EA034A
:10315000362F321B3093EE032091E4033091E503C8
:103160002F5F3F4F3093E5032093E4031092F00369
:103170000091E6031091E7032091E8033091E90301
:10318000601771078207930738F4061B023010F0AE
:103190000E94FA0B80E02CC04091EF030091EA03FB
:1031A0001091EB032091EC033091ED03040F111DFE
:1031B000211D311D0617170728073907E0F0009376
:1031C000E6031093E7032093E8033093E903609349
:1031D000EA037093EB038093EC039093ED0381E09B
:1031E0008093F0038091F3038F5F8093F30381E07A
:1031F0001F910F9108956093E6037093E703809306
:10320000E8039093E903E3CF8EBD00000DB407FE01
:10321000FDCF8EB50895CF92DF92EF92FF920F937C
:103220001F93CF93DF9340E054E060E084EF93E09E
:103230000E9469160E94931B8CB58C7F8CBD8DB546
:1032400081608DBD61E084E00E94291B61E08CE01B
:103250000E94291B61E086E00E94291B61E086E054
:103260000E94651B61E070E080E090E00E94B3097D
:1032700060E086E00E94651B6AE070E080E090E01C
:103280000E94B30961E086E00E94651BE6E8F9E070
:10329000E491F0E0EE0FFF1FE756F64FC591D49191
:1032A000EEE7F9E0E491F0E0EE0FFF1FE756F64F8E
:1032B000E590F490E7E6F9E01491EFE5F9E0049188
:1032C0008881812B8883D7019C91802F80958923C9
:1032D0008C9388811095812388832FE2C22E24E06D
:1032E000D22EF60184910E940419FFEFCF1ADF0A53
:1032F0008CE3C81684E0D806A1F7D701EC91E02B47
:10330000EC93E8811E231883DF91CF911F910F91D9
:10331000FF90EF90DF90CF900895CF93DF93C4EFAD
:10332000D3E089910E94041987E0C43FD807C9F708
:10333000DF91CF9108958931E8F46830D8F495E0B1
:103340004902A001112420E8629FD0011124899F25
:10335000A00DB11D1124AC50BC4F90E080E0445C46
:103360005B4FFA01E80FF91FE491ED930196853068
:103370009105B9F708950F931F93CF93DF93062F0D
:10338000EA01FE0144912196442339F011E0180F1F
:10339000602F0E949B19812FF4CFDF91CF911F9155
:1033A0000F91089587FD1AC06034C0F4E62FE695AA
:1033B000E695E69590E8E99FF0011124E80FF11DEC
:1033C000EC50FC4F2081677081E090E001C0880FD5
:1033D0006A95EAF7442319F0822B8083089580953B
:1033E0008223FBCF84EF93E0FC0100241192119221
:1033F000119211920394D1F708954BE952E16CE7D1
:1034000076EF84EF97E00C949F1C4F925F926F923F
:103410007F928F929F92AF92BF92CF92DF92EF9264
:10342000FF920F931F93E4EFF7E00485158526853F
:103430003785C480D580E680F780408451846284DB
:10344000738480809180A280B380E894B7F8D7011C
:10345000C60184259525A625B72588259925AA2561
:10346000BB25AC01BD01440F551F661F771F4C01E2
:103470005D0184269526A626B726D901C801B695F2
:10348000A79597958795082719272A273B27082569
:1034900019252A253B25C082D182E282F382048746
:1034A000158726873787B901A801417055276627F8
:1034B000772770956095509541955F4F6F4F7F4F7F
:1034C00080899189A289B38984239523A623B72370
:1034D00084259525A625B72584839583A683B78360
:1034E00084899589A689B789482359236A237B2330
:1034F000D901C801072E7AE0880F991FAA1FBB1FA8
:103500007A95D1F7702D88259925AA25BB25842782
:103510009527A627B72780879187A287B387892F0A
:103520009A2FAB2FBB278C0D9D1DAE1DBF1D0827ED
:1035300019272A273B2781709927AA27BB27B095EF
:10354000A095909581959F4FAF4FBF4FC08CD18C68
:10355000E28CF38CBC01CD016C217D218E219F2159
:1035600060277127822793271F910F91FF90EF907B
:10357000DF90CF90BF90AF909F908F907F906F9093
:103580005F904F900895CF92DF92EF92FF926B0180
:103590007C010E94051AA70196010E94511D97FF08
:1035A00007C090958095709561957F4F8F4F9F4F85
:1035B000FF90EF90DF90CF90089581508F3008F00A
:1035C00047C0E82FF0E0E951F54E0C94731D041B41
:1035D000081BF61AFC1A001B281B281B281B0B1B98
:1035E000111B151B191B1F1B281B231B80918000FF
:1035F0008F77809380000895809180008F7DF9CF30
:1036000080918000877FF5CF84B58F7784BD089542
:1036100084B58F7DFBCF809190008F778093900051
:103620000895809190008F7DF9CF80919000877FE1
:10363000F5CF8091C0008F778093C000089580916E
:10364000C0008F7DF9CF8091C200877F8093C20038
:103650000895CF93DF9390E0FC01E55AF64F249153
:103660008658964FFC0184918823C9F090E0880F1A
:10367000991FFC01E955F64FA591B491FC01E7565D
:10368000F64FC591D49161110DC09FB7F8948C91FC
:10369000209582238C938881282328839FBFDF91E4
:1036A000CF910895623051F49FB7F8943C91822FE6
:1036B000809583238C93E8812E2BEFCF8FB7F894DE
:1036C000EC912E2B2C938FBFEACF1F93CF93DF93D8
:1036D000282F30E0F901E45CF64F8491F901E55AB6
:1036E000F64FD491F901E658F64FC491CC23A9F0D6
:1036F000162F81110E94DD1AEC2FF0E0EE0FFF1F54
:10370000E756F64FA591B4918FB7F894EC9111114B
:1037100008C0D095DE23DC938FBFDF91CF911F913E
:103720000895DE2BF8CFCF93CFB7F894809110088F
:10373000811127C0EBE8F9E08491ECE6F9E094917F
:10374000E82FF0E0EE0FFF1FE955F64FA591B49179
:10375000EC91E92321F461E081E10E94651B61E0C5
:1037600081E10E94291B8CB580618CBD8CB5806481
:103770008CBD61E08FE00E94291B61E080E10E9426
:10378000291B809110088F5F80931008CFBFCF91C5
:1037900008954F925F926F927F928F929F92AF9215
:1037A000BF92CF92DF92EF92FF920F931F93FC0193
:1037B000448455846684778484809580A680B7800D
:1037C000C084D184E284F38480819181A281B38119
:1037D000BF77B501A4014C255D256E257F25842783
:1037E0009527A627B7278C019D01000F111F221FC7
:1037F000331F082719272A273B27B301A2017695F3
:103800006795579547954425552566257725402783
:1038100051276227732780829182A282B3824487D4
:10382000558766877787DB01CA0181709927AA27A8
:10383000BB27B095A095909581959F4FAF4FBF4FF7
:1038400080889188A288B38888229922AA22BB22E4
:10385000C824D924EA24FB24C482D582E682F782D4
:10386000C488D588E688F7888C219D21AE21BF21A8
:10387000032E3AE0440F551F661F771F3A95D1F784
:10388000302D402751276227732784279527A627A5
:10389000B72780879187A287B3871F910F91FF90E9
:1038A000EF90DF90CF90BF90AF909F908F907F90E0
:1038B0006F905F904F900895FC0180819181A2816B
:1038C000B381BF77892B8A2B8B2BC1F5848195819E
:1038D000A681B781892B8A2B8B2B81F580859185D9
:1038E000A285B385892B8A2B8B2B41F58485958501
:1038F000A685B785892B8A2B8B2B01F584E590E073
:10390000A0E0B0E080839183A283B38389E490E058
:10391000A0E0B0E084839583A683B7838EE490E033
:10392000A0E0B0E080879187A287B38789E590E027
:10393000A0E0B0E084879587A687B78708958F9227
:103940009F92AF92BF92CF92DF92EF92FF920F932E
:103950001F93CF93DF93EC01488359836A837B8362
:1039600088899989AA89BB898C839D83AE83BF830B
:103970008C899D89AE89BF8988879987AA87BB87EB
:10398000888D998DAA8DBB8D8C879D87AE87BF87CB
:10399000C12CD12C7601C394860103701127000F2E
:1039A000111F000F111F0C0F1D1FF6013197E3703F
:1039B000FF27EE0FFF1FEE0FFF1FEC0FFD1F808193
:1039C0009181A281B3819C01AD016EE1569547952D
:1039D000379527956A95D1F7282739274A275B27F6
:1039E00065E679E887E09CE60E942D1D4B015C01AD
:1039F0008C0C9D1CAE1CBF1CF80180819181A281A2
:103A0000B38188269926AA26BB2680829182A2822B
:103A1000B382FFEFCF1ADF0AEF0AFF0A88E0C81669
:103A2000D104E104F10409F0B7CFCE010E945C1C7F
:103A300008E010E0CE010E94C91B01501109D1F726
:103A4000DF91CF911F910F91FF90EF90DF90CF907A
:103A5000BF90AF909F908F900895DB018F939F93BD
:103A60000E94791DBF91AF91A29F800D911DA39FD0
:103A7000900DB29F900D1124089597FB072E16F418
:103A8000009407D077FD09D00E94841D07FC05D063
:103A90003EF4909581959F4F0895709561957F4F65
:103AA0000895A1E21A2EAA1BBB1BFD010DC0AA1F7F
:103AB000BB1FEE1FFF1FA217B307E407F50720F097
:103AC000A21BB30BE40BF50B661F771F881F991F12
:103AD0001A9469F760957095809590959B01AC015B
:103AE000BD01CF010895EE0FFF1F0590F491E02D69
:103AF00009940E94981DA59F900DB49F900DA49FBE
:103B0000800D911D11240895AA1BBB1B51E107C014
:103B1000AA1FBB1FA617B70710F0A61BB70B881F5D
:103B2000991F5A95A9F780959095BC01CD010895EC
:103B3000A29FB001B39FC001A39F700D811D1124EE
:103B4000911DB29F700D811D1124911D0895F8944F
:023B5000FFCFA5
:103B520000C18081000000FFFFFFFF00E1000000C4
:103B620000000000000000420A890A6C0A7C0A5820
:103B72000A690A4C494E453A00594F55205459504A
:103B8200453A006261732E6370700047616D652E65
:0E3B92006163740025732825642925780A00D4
:00000001FF
